:020000040800F2
:100000008010002061060008510200085302000819
:10001000570200085B0200085F02000800000000B1
:100020000000000000000000000000006302000863
:10003000650200080000000067020008690200086D
:100040007B0600087B0600087B0600087B0600088C
:100050007B0600087B0600087B0600087B0600087C
:100060007B0600087B0600087B0600087B0600086C
:100070007B0600087B0600087B0600087B0600085C
:100080007B0600087B0600087B0600087B0600084C
:100090007B0600087B0600087B0600087B0600083C
:1000A0007B0600087B0600087B0600087B0600082C
:1000B0007B060008432100087B0600087B06000839
:1000C0007B0600087B0600087B0600087B0600080C
:1000D0007B060008D70500087B0600087B060008A1
:1000E0007B0600087B0600087B0600087B060008EC
:1000F0007B0600087B0600087B0600087B060008DC
:100100007B0600087B0600087B0600087B060008CB
:100110007B0600087B0600087B0600087B060008BB
:100120007B0600087B0600087B0600087B060008AB
:1001300000F002F800F03CF80AA090E8000C8244BD
:100140008344AAF10107DA4501D100F031F8AFF29A
:10015000090EBAE80F0013F0010F18BFFB1A43F0A5
:10016000010318472C8100004C810000103A24BF85
:1001700078C878C1FAD8520724BF30C830C144BF0C
:1001800004680C607047000000230024002500264E
:10019000103A28BF78C1FBD8520728BF30C148BFEA
:1001A0000B6070471FB504F08EFE1FBD10B510BD6B
:1001B00004F090FF1146FFF7F5FF00F023F804F07C
:1001C000AEFF03B4FFF7F2FF03BC00F0A9F9000093
:1001D0000B49D1F800C04A685CF8043B1068184429
:1001E00042F8040B8C4528BFA1F1DC0C8A4228BFE1
:1001F000A1F1DC02C1F800C04A6020F00040704765
:10020000140A002008B54FF4A06000F049FA00F08D
:100210001DF901F045FF4FF4E13000F090F941F68F
:100220001F41092001F060FF02F0E8FE02F0EAFE43
:1002300040208023054A00210090084604F0E8F899
:1002400002F0E5FE01E002F003FAFCE7CC7C0008D6
:10025000704700BFFEE700BFFEE700BFFEE700BF3C
:10026000FEE7704770477047704700000CB50020EC
:10027000019000906C48006840F480306A49086042
:1002800000BF6948006800F4003000900198401CED
:100290000190009818B90198B0F5A06FF1D16248AB
:1002A000006800F4003010B10120009001E000204F
:1002B00000900098012843D15C48006840F010008D
:1002C0005A4908600846006820F0030008600846A4
:1002D000006840F002000860534840685249486096
:1002E0000846406848600846406840F480604860BE
:1002F0000846406820F47C1048600846406840F496
:10030000E81048600846006840F08070086000BF50
:100310004548006800F000700028F9D04248406865
:1003200020F00300404948600846406840F0020061
:10033000486000BF3C48406800F00C000828F9D134
:100340000CBD10B5FFF792FF10BD10B53648006820
:1003500040F00100344908600846406834490840CC
:100360003149486008460068324908402E49086013
:100370000846006820F4802008600846406820F4A1
:10038000FE0048604FF41F008860FFF7DAFF4FF06F
:1003900000602949086010BD10B50021002000222E
:1003A000214B5B6803F00C0121B1042906D0082918
:1003B00028D107E0214B224C236027E01F4B204C23
:1003C000236023E0184B5B6803F47010164B5B68E6
:1003D00003F48032022303EB904022B9194B4343CC
:1003E000174C23600DE0104B5B6803F4003323B11E
:1003F000144B4343124C236003E0104B4343104C17
:10040000236003E00D4B0E4C236000BF00BF064B82
:100410005B68C3F303130C4CE15C094B1B68CB40D6
:10042000074C236010BD0000001002400020024075
:100430000000FFF8FFFFF6FE08ED00E000127A0072
:100440000400002000093D000800002010B56FF0F6
:10045000040000F074F92E4800682E49B0FBF1F05A
:100460002D4908700846007800EB4001C1EBC01030
:100470004FF6FF7101EAC0002849088010BD01460F
:10048000254A12784A434FF0E0235A6100229A61CC
:100490001A46126942F001021A6100BF4FF0E022D1
:1004A000106900F001021AB100F48032002AF5D080
:1004B0004FF0E022126922F001024FF0E0231A61AE
:1004C00000229A6170470146144A12884A434FF04D
:1004D000E0235A6100229A611A46126942F0010231
:1004E0001A6100BF4FF0E022106900F001021AB15A
:1004F00000F48032002AF5D04FF0E022126922F099
:1005000001024FF0E0231A6100229A617047000057
:100510000400002000127A00180000201A000020B9
:10052000014600BF704700BF494A128802F04002EE
:10053000002AF9D0C2B2464B1B1D1A80704710B575
:1005400086B00446012144F2040000F033FC4FF46D
:100550000070ADF8140003208DF8160018208DF8F7
:10056000170005A93B4800F069F94FF48060ADF829
:10057000140004208DF8170005A9364800F05EF934
:1005800025208DF8000003208DF801008DF8020071
:1005900001208DF80300684600F087F801940020E0
:1005A000ADF80800ADF80A00ADF80C00ADF8100089
:1005B0000C20ADF80E0001A9254800F0A2FC012294
:1005C00040F22551224800F034FD0121204800F07E
:1005D00024FD06B010BD10B540F225511C4800F0B6
:1005E0000DFE10B31A4800F089FDC4B21A48008805
:1005F00000F40040C8B91848008800F4804060B199
:100600000A2C03D000201449088020E012480088FA
:1006100040F400401049088019E00D2C06D10E4826
:10062000008840F480400C49088010E00A480088A7
:10063000C0F30D0009490C5407480088401C0649C6
:10064000088008460088C72801DD0020088010BD0A
:100650000038014000080140200000207000002008
:100660000948804709480047FEE7FEE7FEE7FEE746
:10067000FEE7FEE7FEE7FEE7FEE7FEE70448054982
:10068000054A064B704700004B0300083101000883
:10069000800A002080100020800C0020800C0020A8
:1006A00031490143314A1160704770B50021002380
:1006B0000F22C47804B32D4C246804F4E064C4F51C
:1006C000E064210AC1F10403CA40447804FA03F14A
:1006D0008478144021430901254C0678A1550478FB
:1006E00004F01F050124AC4005786D11AD0005F143
:1006F000E025C5F8004109E0047804F01F05012455
:10070000AC401C4D0678761145F8264070BD1A4A5B
:100710000A400243154B1B1F1A60704739B1134A38
:10072000121D12680243114B1B1D1A6006E00F4A8E
:10073000121D126882430D4B1B1D1A60704704285E
:1007400008D14FF0E021096941F004014FF0E022A7
:10075000116107E04FF0E021096921F004014FF039
:10076000E0221161704700000000FA050CED00E086
:1007700000E400E080E100E080FFFF1F10B50446C8
:10078000CC48844208D10121042000F02DFB002137
:10079000042000F029FB46E0C748844208D101212B
:1007A000082000F021FB0021082000F01DFB3AE0AA
:1007B000C248844208D10121102000F015FB00211D
:1007C000102000F011FB2EE0BD48844208D1012129
:1007D000202000F009FB0021202000F005FB22E092
:1007E000B848844208D10121402000F0FDFA0021E0
:1007F000402000F0F9FA16E0B348844208D1012104
:10080000802000F0F1FA0021802000F0EDFA0AE0EB
:10081000AE48844207D10121801500F0E5FA00219D
:10082000A01500F0E1FA10BD10B50121084600F056
:10083000DBFA0021012000F0D7FA10BD2DE9F041CC
:10084000024600250026002000230024002791F8FE
:1008500003C00CF00F0591F803C00CF0100CBCF1B4
:10086000000F03D091F802C04CEA050591F800C0D2
:10087000BCF1000F31D0146800202BE04FF0010CC8
:100880000CFA00F3B1F800C00CEA03069E4220D136
:1008900083004FF00F0C0CFA03F7BC4305FA03FC7E
:1008A0004CEA040491F803C0BCF1280F06D14FF0C4
:1008B000010C0CFA00FCC2F814C00AE091F803C065
:1008C000BCF1480F05D14FF0010C0CFA00FCC2F846
:1008D00010C0401C0828D1D31460B1F800C0BCF18E
:1008E000FF0F34DD546800202EE000F1080C4FF0BB
:1008F000010808FA0CF3B1F800C00CEA03069E42A6
:1009000021D183004FF00F0C0CFA03F7BC4305FA1A
:1009100003FC4CEA040491F803C0BCF1280F05D194
:1009200000F1080C08FA0CF8C2F8148091F803C022
:10093000BCF1480F07D100F1080C4FF0010808FA8C
:100940000CF8C2F81080401C0828CED35460BDE8D3
:10095000F0814FF6FF710180022181700421C17086
:1009600070470246002093680B400BB1012000E065
:10097000002070470146886880B270470246002018
:10098000D3680B400BB1012000E000207047014606
:10099000C86880B2704701617047416170470AB111
:1009A000016100E041617047C16070474FF48032DF
:1009B0000A4382618161826182698269704702466D
:1009C0000020434B18684FF68073184040EA02102D
:1009D00008433F4B186070473E49C8617047F0B507
:1009E0000A46002300240021002500F00046B6F14D
:1009F000004F02D1364EF16901E0354E7168C0F307
:100A0000034583B200F44016B6F5401F08D121F02B
:100A100070612F4E766826F070662D4F7E6012E072
:100A200000F48016B6F5801F06D1032606FA05F4F9
:100A3000A14341F0706106E0460D360103FA06F667
:100A4000B14341F0706122B1460D360103FA06F65A
:100A5000314300F00046B6F1004F02D11C4EF16167
:100A600001E01B4E7160F0BD30B500228B071C0FFA
:100A70000F2303FA04F2164B08338C1053F824307A
:100A80009343134C08348D1044F8253023468C10C2
:100A900053F824308C07240F00FA04F423430C4C41
:100AA00008348D1044F8253030BD0A49DC31086027
:100AB0007047000000080140000C01400010014098
:100AC0000014014000180140001C014000200140BA
:100AD0000000014000002042DF48006840F00100B3
:100AE000DD49086008464068DC490840DA4948604A
:100AF00008460068DA490840D74908600846006897
:100B000020F4802008600846406820F4FE00486019
:100B10004FF41F0088607047CF49096821F4803185
:100B2000CD4A11601146096821F480211160B0F5A9
:100B3000803F03D0B0F5802F0ED106E0C64909688A
:100B400041F48031C44A116007E0C349096841F4A7
:100B5000A021C14A116000E000BF00BF704710B57E
:100B600001460022002300204A11012A02D1BA4C7A
:100B7000236806E0022A02D1B74C236A01E0B64C92
:100B8000636A01F01F02012494401C400CB1012053
:100B900000E0002010BD38B50020009000240025A2
:100BA00000BF3120FFF7DBFF05460098401C009096
:100BB0000098B0F5A06F01D0002DF2D03120FFF7E2
:100BC000CEFF08B1012400E00024204638BD0146D4
:100BD0000020A14A106820F0F80040EAC10010602F
:100BE0007047A04908607047024600209A4B586839
:100BF00020F47C1042EA01031843974B5860704779
:100C000098490866704701460020934A506820F0D2
:100C100003000843506070478F48406800F00C00A4
:100C20007047014600208C4A506820F0F0000843CD
:100C30005060704701460020874A506820F4E06009
:100C400008435060704701460020834A506820F4F2
:100C5000605040EAC1005060704729B17E4A527A24
:100C600002437D4B5A7204E07B4A527A82437A4BAC
:100C70005A7270477B49D83108607047014600209E
:100C8000754A506820F44040084350607047002186
:100C9000714A20321170704A82F82010012802D067
:100CA00004280AD104E001216B4A2032117005E0CA
:100CB0000521694A2032117000E000BF00BF704773
:100CC0006949086070476449096A0143624A1162D0
:100CD0007047654944390860704730B500210022EB
:100CE000002400235C4D6D6805F00C0121B104293E
:100CF00005D0082923D105E05C4D056022E05B4D5D
:100D000005601FE0544D6D6805F47012524D6D681A
:100D100005F48034022505EB92421CB9544D55432D
:100D200005600BE04C4D6D6805F400351DB1504D6C
:100D30005543056002E04D4D5543056002E04B4DC3
:100D4000056000BF00BF444D6D6805F0F001090962
:100D5000484D6B5C0568DD4045603F4D6D6805F4AE
:100D6000E061090A434D6B5C4568DD4085603A4DA2
:100D70006D6805F46051C90A3E4D6B5C4568DD4005
:100D8000C560354D6D6805F44041890B3A4D6B5C8B
:100D9000C568B5FBF3F5056130BD29B12E4A52692E
:100DA00002432D4B5A6104E02B4A526982432A4B7D
:100DB0005A61704729B1284A92690243264B9A61C9
:100DC00004E0254A92698243234B9A61704729B116
:100DD000214AD2690243204BDA6104E01E4AD269FB
:100DE00082431D4BDA61704729B11B4AD268024326
:100DF000194BDA6004E0184AD2688243164BDA6075
:100E0000704729B1144A12690243134B1A6104E076
:100E1000114A12698243104B1A61704712494039D6
:100E2000086070470F49C86470470B49C871704724
:100E30000948406A40F0807007494862704701469F
:100E40000020054A92680A400AB1012000E0002013
:100E50007047014988727047001002400000FFF897
:100E6000FFFFF6FE000042428004424200127A0078
:100E700000093D00220000203200002010B5044689
:100E8000FB48844209D101218803FFF7ADFF00210F
:100E90004FF48040FFF7A8FF32E0F648844209D1C2
:100EA00001214804FFF7ADFF00214FF40030FFF7A8
:100EB000A8FF25E0F048844209D101218804FFF70A
:100EC000A0FF00214FF48020FFF79BFF18E0EB48C4
:100ED000844209D10121C804FFF793FF00214FF498
:100EE0000020FFF78EFF0BE0E548844208D1012186
:100EF0000805FFF786FF00214FF48010FFF781FF00
:100F000010BD2DE9F04786B005460E460024A246E6
:100F100000BFA1460027B08900B100BF2F462C8A30
:100F20004CF6FF700440F08804432C82AC894EF6E6
:100F3000F3100440B08831890843718908430443A1
:100F4000AC81AC8A4FF6FF400440B0890443AC82C8
:100F500001A8FFF7C2FEC648874202D1DDF810A003
:100F600001E0DDF80CA0A88900F4004040B10AEBD4
:100F7000CA0000EB0A1031684900B0FBF1F807E045
:100F80000AEBCA0000EB0A1031688900B0FBF1F8E7
:100F90006420B8FBF0F004012009642101FB1089F2
:100FA000A88900F4004040B1322000EBC900B0FB3A
:100FB000F1F000F00700044308E0322000EB0910D4
:100FC0006421B0FBF1F000F00F0004432C8106B067
:100FD000BDE8F0874FF41651016000218180C18087
:100FE00001810C21418100218181704710B50246A9
:100FF0000020108A4FF2FF0318400B884C882343CF
:101000008C882343CC8823431843108210BD0021D1
:10101000018041808180C180704721B1828942F482
:101020000052828104E082894DF6FF731A4082816A
:101030007047F0B50346002400260025002040F646
:101040006A17B94200D100BF1846C1F3421401F03B
:101050001F06012707FA06F5012C01D10C3004E028
:10106000022C01D1103000E014301AB107682F4370
:10107000076002E00768AF430760F0BD1AB1838ADA
:101080000B43838202E0838A8B4383827047028A08
:101090004FF6F0731A400282028A0A4302827047B6
:1010A00082894FF2FF731A40828182890A438281CA
:1010B000704721B1828942F00202828104E0828974
:1010C0004FF6FD731A4082817047028A4FF6DF7334
:1010D0001A400282028A0A430282704721B1028AC0
:1010E00042F48042028204E0028A4BF6FF731A4007
:1010F00002827047C1F308028280704701468888E7
:10110000C0F308007047818941F001018181704777
:10111000028BD2B20283028B42EA01220283704721
:10112000028B02F47F420283028B0A4302837047E0
:1011300021B1828A42F02002828204E0828A4FF644
:10114000DF731A408282704721B1828A42F0100216
:10115000828204E0828A4FF6EF731A4082827047DF
:1011600021B1828A42F00802828204E0828A4FF62C
:10117000F7731A408282704721B1828942F400429B
:10118000828103E08289C2F30E028281704721B11D
:10119000828A42F40062828204E0828A4FF2FF7304
:1011A0001A4082827047828A4FF6FB731A4082820D
:1011B000828A0A438282704721B1828A42F0020207
:1011C000828204E0828A4FF6FD731A408282704761
:1011D00002460020B1F5007F00D100BF13880B400C
:1011E0000BB1012000E00020704701F40072B2F55D
:1011F000007F00D100BFCA430280704770B502462D
:10120000002400230025002040F66A16B14200D1D8
:1012100000BFC1F3421501F01F03012606FA03F3D4
:10122000012D02D19689334006E0022D02D1168AA3
:10123000334001E0968A33400C12012606FA04F48A
:101240001688344013B10CB1012000E0002070BDBD
:1012500010B50022002340F66A14A14200D100BF5D
:101260000A1201249440A3B2DC43048010BD0000A4
:10127000003801400044004000480040004C00405D
:101280000050004010B50446FE48844208D10121B8
:10129000C014FFF7A9FD0021E014FFF7A5FDC4E08D
:1012A000B4F1804F08D101210846FFF7AAFD0021C3
:1012B0000120FFF7A6FDB8E0F348844208D10121E0
:1012C0000220FFF79EFD00210220FFF79AFDACE00F
:1012D000EE48844208D101210420FFF792FD00214D
:1012E0000420FFF78EFDA0E0E948844208D10121E7
:1012F0000820FFF786FD00210820FFF782FD94E01B
:10130000E448844208D101211020FFF77AFD002132
:101310001020FFF776FD88E0DF48844208D10121E4
:101320002020FFF76EFD00212020FFF76AFD7CE002
:10133000DA48844208D101214014FFF755FD00210D
:101340006014FFF751FD70E0D548844209D10121B6
:10135000C804FFF749FD00214FF40020FFF744FDCA
:1013600063E0D048844209D101210805FFF73CFD24
:1013700000214FF48010FFF737FD56E0CA48844241
:1013800009D101214805FFF72FFD00214FF400107E
:10139000FFF72AFD49E0C548844208D101214020D9
:1013A000FFF72FFD00214020FFF72BFD3DE0C04857
:1013B000844208D101218020FFF723FD00218020F5
:1013C000FFF71FFD31E0BB48844208D101218015A1
:1013D000FFF717FD0021A015FFF713FD25E0B64824
:1013E000844209D101210804FFF7FEFC00214FF4DB
:1013F0008030FFF7F9FC18E0B048844209D10121A0
:101400004804FFF7F1FC00214FF40030FFF7ECFC3B
:101410000BE0AB48844208D101218804FFF7E4FCCB
:1014200000214FF48020FFF7DFFC10BD002202886E
:10143000944B98420ED0994B98420BD0B0F1804F0C
:1014400008D0914B984205D0904B984202D0904BD7
:10145000984204D14FF68F731A404B881A438D4B34
:10146000984207D08C4B984204D04FF6FF431A4065
:10147000CB881A4302808B8883850B880385814B38
:1014800098420BD0854B984208D08B4B984205D0A0
:101490008A4B984202D08A4B984201D10B7A03863C
:1014A00001238382704770B5002400220023058C3D
:1014B0004FF6FE7635400584028C8388048B4FF608
:1014C0008F752C40B51E2C400D882C43751E2A406C
:1014D0000D892A434D882A436A4DA8420BD06F4D8F
:1014E000A84208D0744DA84205D0744DA84202D03D
:1014F000734DA84213D14FF6F7752A404D892A4300
:101500004FF6FB752A408D882A434FF6FF652B4026
:101510004FF6FF552B408D892B43CD892B4383807C
:101520000483CD888586028470BD70B500240022B6
:101530000023058C4FF6EF7635400584028C8388B6
:10154000048B48F6FF752C404FF6FF452C400D8864
:101550004FF6FF7606EA05252C434FF6DF752A4045
:101560000D8906EA05152A434D8806EA05152A4322
:10157000444DA84202D0494DA8421DD14FF67F7577
:101580002A404D894FF6FF7606EA05152A434FF6A5
:10159000BF752A408D8806EA05152A434FF6FF35A8
:1015A0002B404FF2FF752B408D8906EA85052B43B2
:1015B000CD8906EA85052B4383800483CD88058782
:1015C000028470BD70B5002400220023058C4FF604
:1015D000FF6635400584028C8388848B4FF68F75B7
:1015E0002C404FF6FC752C400D882C434FF6FF55D0
:1015F0002A400D894FF6FF7606EA05252A434D88D5
:1016000006EA05252A431F4DA84202D0234DA842D1
:101610001DD14FF2FF752A404D894FF6FF7606EA3D
:1016200005252A434FF6FF352A408D8806EA052511
:101630002A434EF6FF752B404DF6FF752B408D89E2
:1016400006EA05152B43CD8906EA05152B43838051
:101650008483CD888587028470BD70B50022002305
:101660000024058C4EF6FF7635400584038C848873
:10167000828B48F6FF752A404FF6FF452A400D88B9
:1016800020E00000002C0140000400400008004061
:10169000000C0040001000400014004000340140E5
:1016A000004C01400050014000540140001800402F
:1016B000001C004000200040004001400044014068
:1016C000004801404FF6FF7606EA05252A434DF60D
:1016D000FF752B400D8906EA05352B434D8806EA38
:1016E00005352B43FA4DA84202D0FA4DA84208D145
:1016F0004BF6FF752C408D894FF6FF7606EA85156F
:101700002C4384808283CD88A0F84050038470BD30
:10171000828B4FF2FF331A408283828B4FF6FF7326
:1017200003EA01231A4382837047F0B50C4615463D
:10173000002200210026078C4EF6FF7C07EA0C07EA
:101740000784828B018C4FF6FF7707EA043640F658
:10175000FF473A404FF6FF7707EA05273A434FF62F
:10176000FF7707EA03373A43D94FB8420ED0D94F33
:10177000B8420BD0B0F1804F08D0D74FB84205D057
:10178000D64FB84202D0D64FB84206D14DF6FF77B9
:10179000394046F48057394305E047F6FF57394052
:1017A00044F48057394382830184F0BD828B4FF625
:1017B000F3731A408283828B0A4382837047F0B5A9
:1017C0000C461546002200210026078C4FF6FF6CC0
:1017D00007EA0C070784828B018C4FF6FF7707EA34
:1017E00004264FF60C773A404FF6FF7707EA0317C7
:1017F0002F433A43B64FB8420ED0B64FB8420BD043
:10180000B0F1804F08D0B44FB84205D0B34FB842C2
:1018100002D0B34FB84206D14FF6FF57394046F4D5
:101820008077394305E04FF2FF57394044F4807721
:10183000394382830184F0BD028B4FF2FF331A409B
:101840000283028B4FF6FF7303EA01231A430283DC
:101850007047F0B50C461546002200210026078C83
:101860004FF6EF7C07EA0C070784028B018C4FF6DA
:10187000FF7707EA041640F6FF473A404FF6FF7736
:1018800007EA03373A434FF6FF7707EA05273A435B
:101890008F4FB8420ED08F4FB8420BD0B0F1804F6F
:1018A00008D08D4FB84205D08C4FB84202D08C4F33
:1018B000B84206D14FF6DF77394046F0100739437A
:1018C00005E04FF65F77394044F010073943028353
:1018D0000184F0BD028B4FF6F3731A400283028B32
:1018E0000A4302837047F0B50C46154600220021DA
:1018F000068C4FF6FE773E400684028B018C4FF635
:101900000C7632407E1C06EA03162E433243704E9C
:10191000B0420ED06F4EB0420BD0B0F1804F08D025
:101920006D4EB04205D06D4EB04202D06C4EB0420A
:1019300006D14FF6FD76314044F00106314305E013
:101940004FF6F576314044F00106314302830184BD
:10195000F0BD70B505460C465D4885420ED05D4829
:1019600085420BD0B5F1804F08D05B48854205D049
:101970005A48854202D05A48854200D100E000BF53
:10198000208850B92389A28861882846FFF7ABFFD9
:10199000E1882846FFF79EFF25E0208804280AD129
:1019A0002389A28861882846FFF753FFE1882846EB
:1019B000FFF742FF17E0208808280AD12389A28870
:1019C00061882846FFF7FBFEE1882846FFF7EEFE18
:1019D00009E02389A28861882846FFF7A6FEE188EE
:1019E0002846FFF795FE70BD2DE9F04105460C46EF
:1019F00000260127608808B9022600E00026A0889A
:101A0000012801D1022700E001272088A0B92389FD
:101A1000A28861882846FFF766FFE1882846FFF71D
:101A200059FF23893A4631462846FFF712FFE188DD
:101A30002846FFF701FF13E02389A2886188284622
:101A4000FFF707FFE1882846FFF7F6FE23893A46AD
:101A500031462846FFF747FFE1882846FFF73AFF5F
:101A6000BDE8F0810A884B881A438B881A43CB88DB
:101A70001A430B891A434B891A438B891A43A0F8DE
:101A8000442070474FF6FF71818000210180C180A2
:101A90004180017270470021018041808180C180B6
:101AA000018141818181C181704700210180418094
:101AB000012181800021C1800181704700210180C6
:101AC00041808180C1800181418181817047000016
:101AD000002C014000340140000400400008004098
:101AE000000C004021B1028842F00102028004E0B3
:101AF00002884FF6FE731A400280704731B1B0F889
:101B0000442042F40042A0F8442005E0B0F844200C
:101B1000C2F30E02A0F8442070471AB183890B4328
:101B2000838102E083898B43838170478182704780
:101B300041EA0203A0F8483070471AB183890B4389
:101B4000838102E083898B438381704701894FF64B
:101B5000F8721140018170470A46002101894FF651
:101B60008F73194011430181704730B504460D460B
:101B700029462046FFF7F0FF208940F0070020812A
:101B800030BD2DE9F04104460D4616461F46602D36
:101B900006D13B46012231462046FFF75AFE05E0BA
:101BA0003B46012231462046FFF79DFE294620464E
:101BB000FFF7D2FF208940F007002081BDE8F081C7
:101BC00030B50C4600210189C9B24FF6FF7505EA10
:101BD0000325154325432943018130BD2DE9F041FB
:101BE00005460E4617469846002443463A46314677
:101BF0002846FFF7E5FF2C894FF6F870044044F0C3
:101C000007044FF68F70044044F070042C81BDE847
:101C1000F081F0B504460D4616461F463B46324657
:101C200029462046FFF7CCFF208940F480402081E0
:101C3000F0BD0185828270470A46002101884FF677
:101C40008F731940114301807047F0B50C4615465B
:101C50001E460021002200230189028B038C4FF6CF
:101C6000F877394021434FF6FC473A4040F20117DC
:101C70003A434FF6DD773B404FF6FF7707EA06170A
:101C80002F433B43018102830384F0BD0A460021B8
:101C9000018B4FF68F7319401143018370470A4639
:101CA0000021018B48F6FF7319404FF6FF7303EADA
:101CB00002231943018370470A460021818B4FF6A6
:101CC0008F7319401143818370470A460021818B2D
:101CD00048F6FF7319404FF6FF7303EA02231943D6
:101CE0008183704721B1028842F08002028004E0C3
:101CF00002884FF67F731A400280704721B18288B4
:101D000042F00402828004E082884FF6FB731A409E
:101D10008280704721B1828842F00802828004E00C
:101D200082884FF6F7731A408280704721B182880B
:101D300042F00102828004E082884FF6FE731A406E
:101D4000828070470A460021018B4FF6F7731940D5
:101D50001143018370470A460021018B4FF2FF7344
:101D600019404FF6FF7303EA0223194301837047BA
:101D70000A460021818B4FF6F77319401143818386
:101D800070470A460021818B4FF2FF7319404FF6CE
:101D9000FF7303EA02231943818370470A46002137
:101DA000018B4FF6FB7319401143018370470A46BC
:101DB0000021018B4FF6FF3319404FF6FF7303EA02
:101DC00002231943018370470A460021818B4FF695
:101DD000FB7319401143818370470A460021818BB0
:101DE0004FF6FF3319404FF6FF7303EA02231943FE
:101DF000818370470A460021018B4FF67F7319409B
:101E00001143018370470A460021018BC1F30E0183
:101E10004FF6FF7303EA02231943018370470A4612
:101E20000021818B4FF67F731940114381837047E6
:101E30000A460021818BC1F30E014FF6FF7303EABE
:101E400002231943818370470A460021018C4FF613
:101E5000FD7319401143018470470A460021018C2B
:101E60004FF6F77319401143018470470A46002169
:101E7000018C4FF6DF7319404FF6FF7303EA02132C
:101E80001943018470470A460021018C4FF67F7385
:101E900019404FF6FF7303EA021319430184704798
:101EA0000A460021018C4FF6FF5319404FF6FF738D
:101EB00003EA02231943018470470A460021018C7A
:101EC0004FF2FF7319404FF6FF7303EA02231943E1
:101ED000018470470A460021018C4DF6FF731940BA
:101EE0004FF6FF7303EA023319430184704730B59C
:101EF000002301248C40A3B2048C9C430484048CF2
:101F000002FA01F5ADB22C43048430BD30B5002394
:101F100004248C40A3B2048C9C430484048C02FAF5
:101F200001F5ADB22C43048430BD70B503460020EA
:101F300000241846183001258D40ACB21D8CA543F5
:101F40001D8409B1082909D100EB6100056825F05D
:101F5000700505600568154305600EE00D1FC5F3AB
:101F60004E052844056825F4E045056005684FF6F0
:101F7000FF7606EA02263543056070BD21B102886E
:101F800042F00202028004E002884FF6FD731A401C
:101F90000280704721B1028842F00402028004E00E
:101FA00002884FF6FB731A400280704721B1828885
:101FB00042F08002828004E082884FF67F731A40EC
:101FC0008280704702884FF6F7731A4002800288B9
:101FD0000A430280704782884FF68F731A408280CE
:101FE00082880A438280704702894FF6F8731A404C
:101FF000028102890A430281704702894FF67F738A
:102000001A40028102890A43028170478184704725
:102010008185704781867047018770478187704747
:10202000A0F84010704702884FF6FF431A40028024
:1020300002880A43028070470146888E7047014635
:10204000088F70470146888F70470146B1F84000FD
:1020500070470146888C70470146088D70470246DC
:102060000020138A0B400BB1012000E000207047D4
:10207000CA430282704730B5024600200023002484
:10208000158A05EA0103958905EA010413B10CB12B
:10209000012000E0002030BDCA43028270470000EA
:1020A00008B501210820FEF785FE4FF48070ADF8D9
:1020B000000010208DF8030003208DF8020069460F
:1020C0000648FEF7BBFB0120054908606420FEF7C7
:1020D000FAF900200349C1F8A00108BD000C014035
:1020E000A0812142008021427FB505460C46012196
:1020F0000220FEF76CFEADF80850ADF80440002059
:10210000ADF80600ADF80A0001A91C48FFF78EF9EA
:10211000012211461948FFF700FD1D208DF800002F
:1021200001208DF8010003208DF8020001208DF8B8
:1021300003006846FEF7B9FA01211048FFF7D2FC08
:102140007FBD10B501210D48FFF795FF012810D183
:1021500002F074FD0A480088401C094908800846BE
:102160000088B0F57A7F04DB002008800120054953
:10217000087001210148FFF78FFF10BD00040040E7
:1021800036000020000000202DE9F04FCFB03F20A6
:102190004D901F204C90002401254B904FF00109D9
:1021A00000204A909FE000F02DFF002467E04D984A
:1021B00003F0CBFFCDE90A01284603F0C6FFCDE9C5
:1021C0000001204603F0D8FF8246FE4AFE4B03F092
:1021D000E7FF0746DDE9002303F030FECDE9020109
:1021E00003F0ACFCCDE906014B9803F0AEFFCDE95E
:1021F0000401DDE9062303F0D3FFCDE90801DDE9A1
:102200000A2303F06BFDCDE90C0103F06FFF2CA94D
:1022100041F824004C9803F098FFCDE90A012846C4
:1022200003F093FFCDE90201204603F0A5FF074626
:10223000E44AE54B03F0B4FFCDE90001DDE90223F8
:1022400003F0FCFDCDE9040103F0C6FCCDE9060175
:102250004B9803F07AFF8246DDE9062303F0A0FFE6
:10226000CDE90801DDE90A2303F038FDCDE90C01D1
:1022700003F03CFF0EA941F82400601CC4B2AC423C
:1022800095DB002417E0601CC6B20FE00EAF57F8D4
:1022900026302CAF57F826200EAF57F824102CAF5D
:1022A00057F8240001F027FA701CC6B2681EB0422D
:1022B000ECDA601CC4B2A81EA042E4DA4D44142D2E
:1022C00000D00DB9C9F10009642002F0C0FC00F093
:1022D0009EFE4A98401C4A905A2804D100204A90F9
:1022E0004FB0BDE8F08F5EE72DE9F0438DB00746B3
:1022F0000C46154600BFC4EB041040003C2190FB87
:10230000F1F0C7EB071100EB4109484604F0CCFAA5
:102310008046012342461F213F2001F0B7F81F22CB
:10232000312101A801F0C4F8DDE90101CDE90B017B
:102330001F213F20DDE90B2301F0DDF905EB45000E
:1023400040003C2190FBF1F004EB440100EB41091B
:10235000484604F0A9FA8046012342461F213F2047
:1023600001F094F81F222A2101A801F0A1F8DDE96B
:102370000101CDE909011F213F20DDE9092301F019
:10238000BAF905EB4501480004F08EFA80460123B6
:1023900042461F213F2001F079F81F22232101A886
:1023A00001F086F8DDE90101CDE907011F213F2099
:1023B000DDE9072301F09FF9002625E0C6EB0611B1
:1023C000480004F071FA8046012342461F213F2055
:1023D00001F05CF81F22222101A801F069F8DDE973
:1023E0000101CDE905011F22272101A801F060F8B4
:1023F000DDE90101CDE90301DDE90323DDE90501A3
:1024000001F079F9701CC6B20C2ED7DB02221F2115
:102410003F2001F070FB1E221F213F2001F0B2FA85
:1024200000F0F5FD00F0EEFD0DB0BDE8F0832DE904
:10243000F0410027002415E0002510E000260BE005
:10244000324629462046FFF74FFF7F1CB7F5487FED
:1024500001DBBDE8F081761C3C2EF1DB6D1C3C2DD0
:10246000ECDB641C0C2CE7DB00BFF2E7F0B5ADF24F
:10247000044D00263C274FF4806101A802F0BAFD0C
:10248000022002F00BFD002437E001A800EBC4009D
:10249000C07988BBFDF79CFE7F2190FBF1F201FB28
:1024A000120000B201A921F83400FDF791FE0546A3
:1024B000C01705EB90608011A5EB801000B201A958
:1024C00001EBC4014880002001A901EBC40188711F
:1024D000FDF77EFE0546C01705EB5070C010A5EB5A
:1024E000C000401C00B201A901EBC401888001209A
:1024F00001A901EBC401C871641C802CC5DBA6E0F6
:10250000384601F0C3F8012808D1761C07EB870094
:10251000B6EB400F02DB0DF2044DF0BD002493E05A
:1025200001A800EBC400C07948BB002001A921F834
:102530003400FDF74DFE0546C01705EB9060801195
:10254000A5EB801000B201A901EBC4014880FDF7A2
:102550003FFE062190FBF1F201FB1200401C00B28D
:1025600001A901EBC4018880002001A901EBC4018D
:102570008871012001A901EBC401C87163E001A8C1
:1025800000EBC4008079401C01A901EBC4018871F3
:1025900001A830F934007C2804DB002001A901EBFC
:1025A000C401C871002002F0F1F901AD05EBC405CA
:1025B000B5F9023001AD35F9342005EBC405B5F9A4
:1025C000021003E04AD8124DFB21194001AD35F944
:1025D000340001F090F8012002F0D8F901A800EBD6
:1025E000C400807901A901EBC401B1F9041088424B
:1025F0000CD1002001A901EBC401887101A830F8B9
:102600003400401C00B201A921F8340001A800EBFD
:10261000C400B0F90400062191FBF0F001A931F9E2
:1026200034100844451E01AA02EBC402B2F902307C
:1026300001AA02EBC402B2F9021001AA32F9340075
:102640002A4601F058F8641C802CFFF669AF57E762
:102650001FB500F0D7FC40208023FE4A00210090E7
:10266000084601F0D5FE00F0D2FC4FF47A7002F07B
:10267000EEFA4FF47A7002F0EAFA4FF47A7002F050
:10268000E6FA00F0BFFC012002F076F9F2A2002188
:10269000084602F05FF800F0BAFC4FF47A7002F0DE
:1026A000D6FA022002F068F9EBA20821002002F01D
:1026B00051F800F0ACFC4FF47A7002F0C8FA032035
:1026C00002F05AF9E4A21821002002F043F800F0C9
:1026D0009EFC4FF47A7002F0BAFA00F093FCE0A28C
:1026E0000021084602F0E9F800F091FC4FF47A70FE
:1026F00002F0ADFADDA20021022002F0DEF800F0C7
:1027000086FC4FF47A7002F0A2FA4FF47A7002F06D
:102710009EFA00F077FC002429E0002002F02CF95A
:10272000042322466021002002F056F8012002F026
:1027300023F9042322461021002002F04DF8022044
:1027400002F01AF9042322461821002002F044F86E
:10275000032002F011F9042322462821002002F070
:102760003BF800F054FC012002F071FA641CB4F54F
:10277000967FD2DB4FF47A7002F069FA00F042FCE7
:10278000002409E0234622462146C3A002F0B8FAFD
:10279000072002F05CFA641CFF2CF3DD4FF47A7022
:1027A00002F055FA00F02EFC00240DE004EB84004A
:1027B00042003F230021084600F09DFF00F027FC67
:1027C000642002F044FA641C142CEFDB00240FE0B8
:1027D00004EB84008021A1EB40023F2300218020F4
:1027E00000F089FF00F013FC642002F030FA641C52
:1027F000142CEDDB4FF47A7002F029FA002538E052
:102800000DB900F0FFFB00240FE06100C1F14003AF
:102810008021A1EB84026000214601F077F800F0EE
:10282000F6FB642002F013FAA41C1F2CEDDB0DB99B
:1028300000F0E8FB4FF4FA7002F009FA1F240FE0F1
:102840006100C1F140038021A1EB840260002146B8
:1028500001F084F800F0DBFB642002F0F8F9A41E1C
:10286000002CEDDC002002F091F8002002F094F83A
:102870006D1C022DC4DB012002F088F8012002F05B
:102880008BF8002540E00DB900F0BCFB002413E0FC
:1028900008206100C1F14001CBB28021A1EB84018D
:1028A000CAB200906000214601F0F0F900F0AFFBE1
:1028B000642002F0CCF9A41C192CE9DB0DB900F05E
:1028C000A1FB4FF4FA7002F0C2F9192413E00820BA
:1028D0006100C1F14001CBB28021A1EB8401CAB2F9
:1028E00000906000214601F01FFA00F090FB642088
:1028F00002F0ADF9A41E022CE9DC002002F046F83B
:10290000002002F049F86D1C022DBCDB012002F012
:102910003DF8012002F040F84FF47A7002F097F988
:1029200000F070FB1F233F221946104601F025FAE4
:1029300000F06DFB4FF47A7002F089F900F062FB51
:102940001F23102219463F2001F017FA00F05FFB09
:102950004FF47A7002F07BF900F054FB1F233F2202
:102960001946104601F01BFB00F051FB4FF47A7042
:1029700002F06DF900F046FB1F23102219463F209C
:1029800001F00DFB00F043FB4FF47A7002F05FF9A9
:1029900000F038FB1E221F213F2000F0F3FF00F063
:1029A00036FB4FF47A7002F052F900F02BFB1E2236
:1029B0001F213F2001F09FF800F029FB4FF47A70AF
:1029C00002F045F900F01EFB32203C211E23642258
:1029D000CDE900100A21052001F02FFC00F017FBC3
:1029E0004FF47A7002F033F900F00CFB32203C21F6
:1029F0001E236422CDE900100A21052001F039FCD4
:102A000000F005FB4FF47A7002F021F900F0FAFAB9
:102A100010200346264A00210090084601F0F8FCE9
:102A200000F0F5FA4FF47A7002F011F92020034615
:102A3000204A00210090102001F0EAFC00F0E7FAA3
:102A40004FF47A7002F003F9402003461A4A00213D
:102A5000009033E0CC7C00087465737400000000C3
:102A6000D2BBD6BBB3CCD0F2D4B50000D2BBD6BB60
:102A7000B3CCD0F2D4B5D2BBD6BBB3CCD0F2D4B5A4
:102A8000D2BBD6BBB3CCD0F2D4B5D2BBD6BBB3CCC1
:102A9000D0F2D4B5000000006E756D3A2564206355
:102AA00068613A2563206865783A25780D0A000048
:102AB000AC770008CC7700084C780008302001F093
:102AC000A7FC00F0A4FA4FF47A7002F0C0F800F00E
:102AD00099FA00240BE000231E221F213F200094BE
:102AE00001F076F800F093FA00F08CFA641CB4F56B
:102AF000B87FF0DD1E221F213F2000F043FF00F0D1
:102B000086FA4FF4FA7002F0A2F8002411E022468F
:102B10001F213F2000F0EFFF1E221F213F2000F069
:102B200031FF00F074FA00F06DFA642002F08FF8C3
:102B3000641C0A2CEBDB002426E0204603F0B4FEE4
:102B4000064600F07DFC1F213F2000F09BFC3D224B
:102B50003F21684600F0ACFCDDE90001CDE902014F
:102B60000522DDE9020100F0C6FF1E221F213F20E1
:102B700000F008FF0A221F213F2000F0BCFF00F0F8
:102B800046FA00F03FFA641CB4F5347FD5DB00242C
:102B90002BE004F5347003F087FE064600F050FC8D
:102BA00004F13F001F2100F06DFC04F13F013D22C4
:102BB000684600F07DFCDDE90001CDE90201052257
:102BC000DDE9020100F097FF04F13F001E221F2102
:102BD00000F0D8FE04F13F000A221F2100F08BFF15
:102BE00000F015FA00F00EFA641C5F2CD1DBFFF741
:102BF0003DFCFFF71CFCFFF7C7FA4FF47A7002F0B8
:102C000026F800F0FFF9022001F0B6FE68A21021BC
:102C1000082001F09FFD00F0FAF94FF47A7002F0FD
:102C200016F84FF47A7002F012F800F0EBF9282051
:102C30008023624A0A210090002001F0E9FB00F0A5
:102C4000E6F900BFFEE7ADF5587D0025012002F052
:102C500025F9002407E0A01E00EB8000400096A9A3
:102C600041F82400641C422CF5DB00F0CBF99DE018
:102C7000642D27D0FDF7ACFA0646C01706EB90701E
:102C80008010A6EB8000401C00B205EB45016A46AF
:102C900002EB41018880FDF79BFA422190FBF1F2A3
:102CA00001FB120496A830F8240000B205EB4501A0
:102CB0002DF81100002005EB45016A4602EB4101A9
:102CC00048806D1C002468E004EB4400694601EB79
:102CD0004000408804EB44016A4602EB41018988C8
:102CE000084400B204EB440102EB4101488004EBCC
:102CF00044026B4603EB4202B2F90220511C04EB82
:102D000044023DF9120000F05CFD04EB44026B4606
:102D100003EB4202B2F9021004EB44023DF9122027
:102D2000501C00F04EFD04EB44026B4603EB4202E4
:102D3000B2F9021004EB44023DF9120000F041FD2B
:102D400004EB44026B4603EB4202B2F9021004EBBF
:102D500044023DF91220501E00F033FD04EB440202
:102D60006B4603EB4202B2F90220511E04EB44020F
:102D70003DF9120000F025FD04EB4400694601EB2B
:102D80004000B0F902003F2806DD002004EB4401BA
:102D90006A4602EB41014880641CAC4294DB1E2071
:102DA00001F055FF00F033F900F02CF960E7000066
:102DB0002053686F7720456E642000004C7A00082D
:102DC00008B501210420FDF7F5FF4FF4F870ADF8C8
:102DD000000010208DF8030003208DF802006946E2
:102DE0008548FDF72BFDB0218348FDF7D4FD402138
:102DF0008148FDF7D0FD642001F029FF40217E4885
:102E0000FDF7CBFDC82001F022FF40217A48FDF7F5
:102E1000C2FD08BD70B504460E4626B18021764835
:102E2000FDF7B9FD03E080217348FDF7B6FD4FF4CF
:102E300080717148FDF7B1FD002517E010216E4843
:102E4000FDF7ABFD04F0800020B120216A48FDF7BA
:102E5000A2FD03E020216848FDF79FFD1021664890
:102E6000FDF799FD6006040E681CC5B2082DE5DB70
:102E70004FF480716048FDF78EFD80215E48FDF7BC
:102E80008AFD70BD10B5044600212046FFF7C2FF41
:102E900010BD10B5044601212046FFF7BBFF10BD51
:102EA0002DE9F04105462F46002416E004F1B0015B
:102EB000C8B2FFF7E7FF0020FFF7E4FF1020FFF79D
:102EC000E1FF002605E017F8010BFFF7E2FF701C99
:102ED000C6B2802EF7DB601CC4B2082CE6DBBDE86E
:102EE000F08170B5002415E004F1B001C8B2FFF71D
:102EF000C9FF0020FFF7C6FF1020FFF7C3FF002522
:102F000004E00020FFF7C5FF681CC5B2802DF8DB88
:102F1000601CC4B2082CE7DB70BD10B5AE20FFF713
:102F2000B1FF2020FFF7AEFF1020FFF7ABFFB0206E
:102F3000FFF7A8FFC820FFF7A5FF0020FFF7A2FFBB
:102F40001020FFF79FFF4020FFF79CFF8120FFF735
:102F500099FFFF20FFF796FFA120FFF793FFA62020
:102F6000FFF790FFA820FFF78DFF3F20FFF78AFFB4
:102F7000A420FFF787FFD320FFF784FF0020FFF78F
:102F800081FFD520FFF77EFFF020FFF77BFFD920E0
:102F9000FFF778FF2220FFF775FFDA20FFF772FFB7
:102FA0001220FFF76FFFDB20FFF76CFF2020FFF7F9
:102FB00069FF8D20FFF766FF1420FFF763FFAF2046
:102FC000FFF760FFFFF78DFF10BD10B58D20FFF7F5
:102FD00059FF1420FFF756FFAF20FFF753FF10BD36
:102FE00010B58D20FFF74EFF1020FFF74BFFAE20EE
:102FF000FFF748FF10BD00000008014010B501F0C8
:103000000DFE10BD10B5002001F0DBFC10BD10B5A9
:1030100001F0FAFD10BD2DE9F04105460E461446BB
:1030200001F0BDFC58B13146284601F021FD40EACF
:1030300004073A463146284601F028FD0AE03146A9
:10304000284601F015FD20EA04073A463146284695
:1030500001F01CFDBDE8F0812DE9FF4F81B08046F5
:103060000C46994604EB0902511ECA1701EB527235
:10307000D2102046E31704EB5373A2EBE302009255
:10308000B8F1800F01DC402C02DD05B0BDE8F08F07
:1030900047465DE00098B8B925462646E11704EB9F
:1030A0005171C910A4EBC103A9F10101DFF828C4D3
:1030B0001CF801109940CAB2E11704EB5171C81015
:1030C0003946FFF7A8FF42E025462646E11704EB04
:1030D0005171C910A4EBC101C1F10701FE4B595C4C
:1030E000A346E31704EB5373DB10A4EBC30399402F
:1030F000CAB2E11705EB5171C8103946FFF78BFFD3
:103100004FF0010A0BE02546E11704EB51710AEB81
:10311000E100FF223946FFF77EFF0AF1010A00981D
:103120008245F0DBA9F101010D19E91705EB517199
:10313000C910A5EBC101E84B5A5C2646E11704EB28
:103140005171CB10009958183946FFF764FF7F1C66
:1031500003984044B84201DD802F9BDB00BF94E719
:103160002DE9F05F82460C461746E219511ECA1738
:1031700001EB5272D2102046E31704EB5373A2EB1B
:10318000E309B9F1000F16D125462646E11704EBF5
:103190005171C910A4EBC103791EDFF83CC31CF8C0
:1031A00001109940CAB2E11704EB5171C8105146A1
:1031B000FFF731FF3FE025462646E11704EB51714A
:1031C000C910A4EBC101C1F10701C34B595CA3466F
:1031D000E31704EB5373DB10A4EBC3039940CAB2AB
:1031E000E11705EB5171C8105146FFF714FF4FF07E
:1031F00001080BE02546E11704EB517108EBE100F3
:10320000FF225146FFF707FF08F10108C845F1DB2F
:10321000791E0D19E91705EB5171C910A5EBC10114
:10322000AD4B5A5C2646E11704EB517109EBE10006
:103230005146FFF7F0FEBDE8F09F2DE9F84F044638
:10324000A146A246A54850444FEA500A544621469A
:10325000484603F033FA2146009003F0C1F9834653
:1032600003F092F9074600229D4B02F099FF0546B4
:1032700002F002FD04462046BDE8F88F30B5034653
:103280000BB9002030BD00219A0F9B00012A01D903
:10329000491C521A0F240DE04900920002EB937270
:1032A0000D46012000EB45059B00AA4201D3521BAD
:1032B000491C641E002CEFD10846E3E72DE9FF4FBF
:1032C0008BB092469B46DDE91889DBF800100C981C
:1032D000081A4043DAF800200B99521ADAF8003045
:1032E000591A02FB01000A900A9803F0DDFA0890CF
:1032F000FFF7A3FF099003F047F904460D46DBF8FA
:1033000000200C99501A02F020FFCDE90801DAF8EC
:1033100000200B99501A02F018FFCDE90601DDE9F3
:10332000082302F04BFB06460F461A98002842D0AD
:1033300042464B463046394602F0D0FCCDE900010A
:1033400002F0FCFB22462B46CDE9020102F028FFE9
:10335000CDE906010B9802F0F8FECDE90401DDE9A4
:10336000062302F0BBFCCDE9080102F0BFFECAF85B
:10337000000042464B463046394602F0AFFCCDE9EC
:10338000000102F029FC22462B46CDE9020102F0A1
:1033900007FFCDE906010C9802F0D7FECDE9040144
:1033A000DDE9062302F09AFCCDE9080102F09EFE59
:1033B000CBF8000041E042464B463046394602F029
:1033C000F9FFCDE9000102F0B9FB22462B46CDE919
:1033D000020102F0E5FECDE906010B9802F0B5FE10
:1033E000CDE90401DDE9062302F078FCCDE908010E
:1033F00002F07CFECAF8000042464B463046394691
:1034000002F0D8FFCDE9000102F0E6FB22462B4690
:10341000CDE9020102F0C4FECDE906010C9802F0EC
:1034200094FECDE90401DDE9062302F057FCCDE965
:10343000080102F05BFECBF800000FB0BDE8F08F92
:103440002DE9F04782460021504603F0F9F902D1F8
:10345000002001460CE0504603F096F88046214AD1
:10346000214B02F09DFE06460022204B02F0E6FCB6
:10347000044602F001FC1E498860BDE8F0871C4943
:10348000C86070471A4A1060516070472DE9F041DA
:1034900006460F4614461D4639463046FFF7F2FFF2
:1034A0002846FFF7ECFF2046FFF7CAFFBDE8F08192
:1034B0002DE9F04188B004460D4616460595049660
:1034C0000B49886803F060F807460948C068084A55
:1034D000CDE9007102900DE04800002062CF763FF8
:1034E0000000E03F6E861BF0F92109400080664035
:1034F00038000020516804AB106805AAFFF7DEFE13
:103500000598069004980790DDE90601C4E90001DA
:1035100008B0BDE8F08170B506460C461546214658
:10352000304601F03EFBA8420BD10CB9002070BD23
:10353000601EC1B22A463046FFF7EDFF401CC0B204
:10354000F5E70020F3E770B506460C461546214620
:10355000304601F026FBA8420CD13F2C01D10020BF
:1035600070BD601CC1B22A463046FFF7D4FF401C34
:10357000C0B2F5E70020F3E72DE9F04104460D461F
:1035800016461F46FFF743FD2946204601F009FB7A
:10359000B04220D13A462946204601F084FA611E05
:1035A000C8B23B4632462946FFF7E6FF611CC8B267
:1035B0003B4632462946FFF7DFFF681CC1B23B4657
:1035C00032462046FFF7D8FF681EC1B23B4632465E
:1035D0002046FFF7D1FFBDE8F0812DE9F04707460F
:1035E000884615469A464FF0000900263C4615E0ED
:1035F000EAB2E0B24146FFF7A6FF8146EAB2E0B286
:103600004146FFF788FF064609EB0602A8EB0601D4
:1036100053462046FFF7A4FD601C04B241462046F5
:1036200001F0BFFAA84201D1802CE1DB7C1E15E03D
:10363000EAB2E0B24146FFF786FF8146EAB2E0B265
:103640004146FFF768FF064609EB0602A8EB0601B4
:1036500053462046FFF784FD601E04B241462046D3
:1036600001F09FFAA84201D1002CE1DCBDE8F0870F
:1036700001460878704710B50246012000E050432B
:103680000B1EA1F10104E1B2F9D110BD10B5044641
:103690000C48006858B9FFF7BAFCFFF7B3FC4FF4C9
:1036A0007A7090FBF4F007490860012010BD0020FB
:1036B000FCE70449086000BF024909680029FBD102
:1036C0007047000060000020FE4A1060FE4A116052
:1036D00070470CB5FB4909680091FB4909680191E5
:1036E000DDE90012C0E900120CBDF6480068704721
:1036F000F548006870472DE9FF4F85B081464FF0CF
:10370000000AD3460798A0EB090506990898461ABF
:103710001FFA89F00390069880B20290002D01DD17
:10372000012705E00DB9002702E04FF0FF376D4299
:10373000002E02DD4FF0010806E016B94FF0000838
:1037400002E04FF0FF387642B54201DD2C4600E042
:103750003446002004901DE001F01BF90246019060
:10376000DDE9021001F09FF9AA44B344A24505DD4A
:10377000AAEB040A0398384480B20390A34505DD00
:10378000ABEB040B0298404480B202900498401CBA
:1037900080B20490611C04988842DDDD09B0BDE868
:1037A000F08F70B505460C4623462A46C648016888
:1037B000C4480068FFF79FFFC2480560C248046024
:1037C00070BD70B504460D4601F0E3F8064632467A
:1037D0002946204601F067F970BD70B504460D46D4
:1037E0002946204601F0DDF908B1012070BD002016
:1037F000FCE72DE9F04704460F46164604EB0608A1
:1038000001F0C7F88146002C01DA002000E02046D4
:10381000054605E04A463946284601F044F96D1C44
:10382000B8F1800F01DA404600E08020A842F1DCC8
:10383000BDE8F0872DE9F04707460C46164604EB35
:10384000060801F0A6F88146002C01DA002000E00D
:103850002046054605E04A462946384601F023F948
:103860006D1CB8F1400F01DA404600E04020A8424C
:10387000F1DCBDE8F08770B504460E460025D4E9BA
:103880000001FFF721FF012507E004EBC50254F812
:1038900035005168FFF785FF6D1CB542F5DB70BD43
:1038A0002DE9F04104460D4616461F462B4632468A
:1038B00029462046FFF71FFF3B4632463946204641
:1038C000FFF719FF3B46224629462046FFF713FF24
:1038D0003B46324629463046FFF70DFFBDE8F081F2
:1038E0002DE9F04104460D4616461F463B4632463A
:1038F00029462046FFF7D4FF781B431E301B421E8B
:10390000691C601CFFF7A8FBBDE8F0812DE9F041C0
:1039100004460D4616461F46A019421E2B46294650
:103920002046FFF7E8FEE819431EA019421EE819D9
:10393000411E2046FFF7DFFEE819431E22462946B6
:103940002046FFF7D8FEE9194B1EA1194A1EA119FE
:10395000481E2946FFF7CFFEBDE8F0812DE9F04172
:1039600004460D4616461F463B463246294620462B
:10397000FFF7CCFF7B1E721E691C601CFFF76CFBFF
:10398000BDE8F0812DE9F04706460F469046002439
:103990000FFA88F50320A0EB48000FFA80F952E0F7
:1039A00000F0F7FF824679193019524601F07BF892
:1039B00000F0EFFF82467919301B524601F073F890
:1039C00000F0E7FF82463919701B524601F06BF890
:1039D00000F0DFFF8246391B701B524601F063F88E
:1039E00000F0D7FF8246791B301B524601F05BF88E
:1039F00000F0CFFF8246791B3019524601F053F890
:103A000000F0C7FF8246391B7019524601F04BF88F
:103A100000F0BFFF824639197019524601F043F891
:103A2000601C04B2B9F1000F05DAA000801D484403
:103A30000FFA80F907E0601B80000A3048440FFA53
:103A400080F9681E05B2AC42AADDBDE8F0872DE919
:103A5000FE4F06460F4690469A46DDF83090C8F174
:103A6000010B012002904FEA4800404201900024DF
:103A7000454600F08EFF009039E0BBF1000F05DBFA
:103A80006D1E0198801C019001988344641C02986B
:103A9000801C0290029883440AF0010078B16B0008
:103AA0005B1C4B44DAB2791B3019FFF7C3FE63008D
:103AB0005B1C4B44DAB2391B7019FFF7BBFE0AF0EE
:103AC000020003E0500000205400002078B16B0099
:103AD0005B1C4B44DAB2791B301BFFF7ABFE630073
:103AE0005B1C4B44DAB2391B701BFFF7A3FEAC42E0
:103AF000C3DBBDE8FE8FF8B506460D4614466000F0
:103B0000401CC2B2291B3046FFF794FE0020E2B2EF
:103B10000323294600903046FFF799FFF8BD2DE9B1
:103B2000FC5F06460F4691469846C9F1010A4FF0E0
:103B3000010B4FEA49004042019000244D4600F03D
:103B400028FF009040E0BAF1000F05DB6D1E0198E0
:103B5000801C019001988244641C0BF1020BDA4432
:103B600008F0040048B179193019009A00F09BFF61
:103B700039197019009A00F096FF08F0020048B158
:103B8000791B3019009A00F08EFF391B7019009ACA
:103B900000F089FF08F0080048B13919701B009A3D
:103BA00000F081FF7919301B009A00F07CFF08F0CB
:103BB000010048B1391B701B009A00F074FF791B9B
:103BC000301B009A00F06FFFAC42BCDBBDE8FC9FED
:103BD0002DE9F04786B005460E4614461F46DDF82F
:103BE00038804FF000096846FFF773FDDDE90001FA
:103BF000CDE9020131462846FFF744FC0020FFF7DB
:103C00003EFCB8F5B47F01DD4FF4B4780020FFF737
:103C100017FC321929466846FFF74AFCDDE9000126
:103C2000CDE90401DDE90401FFF74EFD384602F05D
:103C30003BFE814614E04846FFF702FC3219294654
:103C40006846FFF735FCDDE90001CDE90401DDE957
:103C50000401FFF7A6FDFE49484602F0C1FC81467B
:103C6000404602F021FE8246494602F0B4FEE2D30D
:103C700028193146FFF795FDDDE90201FFF724FD24
:103C800006B0BDE8F08710B5029C10BD2DE9F041EB
:103C900005460E4617469846069C022101FB147104
:103CA000CAB228193146FFF7A4FD022303FB14739F
:103CB000DAB206EB0803591E2819FFF79AFD022015
:103CC00000FB1480C2B231192846FFF7B3FD02236E
:103CD00003FB1483DAB23119EB19581EFFF7AAFD62
:103CE0003119281901232246FFF719FF3119EA1962
:103CF000121B501E02232246FFF711FF06EB08029B
:103D0000121B511EEA19121B501E04232246FFF7F4
:103D100006FF06EB0802121B511E28190823224633
:103D2000FFF7FDFEBDE8F0812DE9F84305460E469C
:103D300017469846089C022101FB14722819434635
:103D40003146FFF70BFE022000FB1480401E3119A4
:103D5000EA19121B0090501E01232246FFF777FE3E
:103D6000022000FB1480401E311900902819022304
:103D70002246FFF76CFEBDE8F8832DE9FF4F99B0AE
:103D800006460F4698461B9800FB00F908FB08FA08
:103D90004FEA490017904FEA4A0016900025444622
:103DA0000020159017986043149000F0F2FD391927
:103DB00013907019139A00F076FE00F0EAFD39199D
:103DC0001390701B139A00F06EFE00F0E2FD391B99
:103DD00013907019139A00F066FE00F0DAFD391B9B
:103DE0001390701B139A00F05EFE484602F0ADF986
:103DF0000022984BCDE90C0102F0D2F9CDE9100177
:103E000009FB18A002F0A1F9CDE90E01DDE91023AC
:103E100001F064FFCDE9120102F068F9834636E053
:103E20006D1CDDE9150108441590BBF1000F03DAA4
:103E30001598504483440AE0641E17991498401A58
:103E4000149015980AEB00011498081A834400F0A6
:103E5000A0FD391913907019139A00F024FE00F098
:103E600098FD39191390701B139A00F01CFE00F096
:103E700090FD391B13907019139A00F014FE00F096
:103E800088FD391B1390701B139A00F00CFEDDE9BE
:103E900014108842C4DB09FB0AF002F056F9CDE9A0
:103EA0001001611E01FB09F1621E01FB02F002F02C
:103EB0004CF9CDE90C01284602F047F90022664B87
:103EC000CDE9040101F00AFFCDE90801284602F01E
:103ED0003CF90022604BCDE9000101F0FFFECDE985
:103EE0000401504602F031F9CDE90201DDE9042375
:103EF00002F056F9CDE90601DDE9082302F050F998
:103F0000CDE90A01DDE90C2301F0E8FECDE90E015F
:103F1000DDE9102302F04EFACDE9120102F0E6F8D5
:103F2000834637E0641E17991498401A1490BBF129
:103F3000000F04DD1498A9EB000083440AE06D1C17
:103F4000DDE91501084415901498A9EB00011598B6
:103F50000844834400F01DFD391913907019139A19
:103F600000F0A1FD00F015FD39191390701B139A94
:103F700000F099FD00F00DFD391B13907019139A94
:103F800000F091FD00F005FD391B1390701B139A92
:103F900000F089FD002CC5DC1DB0BDE8F08F2DE9D7
:103FA000FF4F85B0824616461F46B3460BFB06FB05
:103FB0004FEA4B0B0397039F07FB07F0039003980F
:103FC00040000390354600244FF00108A8EB060896
:103FD000A8EB060808FB07F808FB07F8B14609FB41
:103FE00006F9002004900398029002987043029012
:103FF000002001903CE0631CDAB2069B191B0AEB1F
:104000000500FFF717FC631CDAB2069B191BAAEB2D
:104010000500FFF70FFC611CCAB20AEB0500069908
:10402000FFF708FC611CCAB2AAEB05000699FFF76E
:1040300001FC641C01985844019004984844049081
:10404000D9440221049801FB0080002810DD05E01E
:104050000000A0400000D03F0000E03F6D1EDDE901
:104060000201401A0290049840440490039880444E
:10407000DDE901108842BEDA00253C46B84608FB5F
:1040800007F84FF00109A9EB0709A9EB070909FB9C
:1040900006F909FB06F9002004900290CDF804B05F
:1040A000DDF804B00BFB07F0019036E0631CDAB2D8
:1040B000069B191B0AEB0500FFF7BCFB631CDAB279
:1040C000069B191BAAEB0500FFF7B4FB611CCAB2E3
:1040D0000AEB05000699FFF7ADFB611CCAB2AAEB1B
:1040E00005000699FFF7A6FB6D1CDDE902010844F7
:1040F000029004984044049003988044022104985C
:1041000001FB0090002808DD641E0198A0EB0B0065
:104110000190049848440490D944DDE90110884294
:10412000C4DD09B0BDE8F08F2DE9FE4F06460F460D
:1041300014469846A01B002801DB014600E04142DE
:104140000D46A8EB0700002801DB014600E04142D4
:10415000894609F0010AC5F10100800000FB09F061
:1041600000FB09FB0AF101008000684368430290EC
:1041700002980BEB00010AFB05F000FB0510019013
:10418000A64201DD26462C44474500DD474609F19D
:10419000010000EBD07107EB6107A7EB0A08E8000C
:1041A00045434FEAC90000FB09FA00BF39462046E3
:1041B000FFF707FB39463046FFF703FB4146304621
:1041C000FFF7FFFA41462046FFF7FBFA019840004F
:1041D00000900098584507DB761C641E0BEB0A0123
:1041E0008B4601980844019002990098884208DCA7
:1041F0007F1CA8F101080298411902910198084416
:104200000190A642D2DD12E0701E3946FFF7D9FABE
:1042100039467F1C601CFFF7D4FA701E4146FFF739
:10422000D0FA4146A8F10108601CFFF7CAFAA7EBD3
:1042300008004845E8DBBDE8FE8F2DE9F04704465D
:104240000D4616461F46DDE908893B46324629469B
:104250002046FFF750FA4B46424639463046FFF7B4
:104260004AFA2B46224649464046FFF744FABDE843
:10427000F0872DE9F04F8DB08046894615461C46E3
:10428000DDE916AB00200490039000F082FB029061
:1042900000F085FB019000F079FBA14509DD4C445D
:1042A000A4EB0909A4EB09044544A5EB0808A5EB18
:1042B00008055C4509DD5C44A4EB0B0BA4EB0B0487
:1042C0005544A5EB0A0AA5EB0A05A14509DD4C44B6
:1042D000A4EB0909A4EB09044544A5EB0808A5EBE8
:1042E0000805D94519D146463746B54201DA2E466A
:1042F00002E0BD4200DD2F46B24501DA564602E03B
:10430000BA4500DD5746B81B401CC2B2494630468C
:10431000FFF76FFA0DB0BDE8F08FA5EB08000A902B
:10432000A4EB09000990AAEB08000890ABEB090088
:104330000790AAEB05000690ABEB04000590002067
:10434000049003905C4501D10B9401E0601E0B903A
:10435000CDF8309022E00999049890FBF1F000EB41
:1043600008060799039890FBF1F000EB08070A99FB
:104370000498084404900899039808440390BE42A6
:1043800002DD3744BE1BBF1BB81B401CC2B2304607
:104390000C99FFF72EFA0C98401C0C90DDE90B10DD
:1043A0008842D8DD0C98001B0699484304900C986D
:1043B000A0EB090008994843039021E0DDE90401DE
:1043C00090FBF1F046190799039890FBF1F000EB90
:1043D000080706990498084404900899039808442B
:1043E0000390BE4202DD3744BE1BBF1BB81B401CFE
:1043F000C2B230460C99FFF7FCF90C98401C0C90A7
:104400000C985845DADD029800F0C0FA00BF81E749
:104410002DE9FF4F83B0054688469946DDF840B048
:10442000B8F1000101DB0A4600E04A421046D2170B
:1044300000EB5272D210A0EBC20A40464FEAE8717C
:1044400008EB5171C910029158464FEAEB710BEB22
:104450005171C910019105EB0900002808DB7F2D7F
:1044600006DC08EB0B00002802DBB8F13F0F02DD91
:1044700007B0BDE8F08FB8F1000F04DA0298401ED3
:104480000290CAF1080A4FEAEB710BEB5171C910A7
:10449000ABEBC10111B10198401C01900027B9E0BC
:1044A0000298C619072E00DDB8E016F1020F78DD7C
:1044B0000024AAE060197F2800DDA9E06019002827
:1044C0006EDB002E4ADB00F064FA012816D12919B0
:1044D000304600F0CDFA0090059907FB0911081944
:1044E000FFF7C6F800FA0AF000990843C0B200903E
:1044F00029193046009A00F0C9FA2FE000F049FA75
:10450000A8B92919304600F0B3FA0090059907FBC5
:1045100009110819FFF7ACF800FA0AF1009888436E
:10452000009029193046009A00F0B0FA16E02919D7
:10453000304600F09DFA0090059907FB0911081913
:10454000FFF796F800FA0AF000994840C0B20090D0
:1045500029193046009A00F099FA00BFBAF1000F0D
:1045600052D0072E50DA16F1020F4DDD00F011FA8D
:10457000012817D12919701C00F07AFA00900599CA
:1045800007FB09110819FFF773F8CAF10801084180
:104590000099084300902919701C009A00F076FADF
:1045A00032E036E000F0F5F9B8B92919701C00F0D6
:1045B0005FFA0090059907FB09110819FFF758F8F1
:1045C000CAF1080140FA01F10098884300902919C6
:1045D000701C009A00F05AFA16E02919701C00F0BD
:1045E00047FA0090059907FB09110819FFF740F8F1
:1045F000CAF1080108410099484000902919701C2F
:10460000009A00F043FA00BF641C4C45FFF652AF1D
:1046100000BF7F1C01988742FFF642AF00BF00BF7A
:1046200026E72DE9F04F85B080460D46164600F08E
:10463000A6F9074600F0ADF9019000F09AF9039051
:1046400001990398884201D0012000E000200490E5
:104650003FBBB8F1060F01DC782D02DD05B0BDE8E7
:10466000F08FA6F12000C6B2002408E004EB06108B
:10467000BB4B1A5C2919404600F008FA641C082C50
:10468000F4DB00240AE004EB06100830B44B1A5C9B
:10469000291908F1010000F0F9F9641C082CF2DB7B
:1046A00056E0B8F1800F0DDA402D0BDA052000FB43
:1046B0000780401E002805D4082000FB0750401E3C
:1046C000002800D5CAE7002440E0052C02D14FF0B5
:1046D000000907E006EB8601A24A11440819FEF71B
:1046E000C7FF81464FF0000A2CE009F0010008B135
:1046F000019800E003980090009808B90498E8B188
:104700004FF0000B18E0002002900EE00AFB075368
:10471000029A991804FB078202EB0B00009A00F042
:10472000C2F90298401CC0B202900298B842EDDB78
:104730000BF1010000F0FF0BBB45E4DB4FEA690918
:104740000AF1010ABAF1080FCFDB641C062CBCDBAE
:1047500000BF83E72DE9F04706460F4615460024C3
:1047600006F0FF0907F0FF0A00F009F98046B8F1EA
:10477000000F10D10BE02A5D39463046FFF751FF9C
:104780000837782F01DD0027B61C601CC4B2285DF5
:104790000028F0D11EE01AE0285D0A2809D108207F
:1047A00000FB08A000F0FF0A06F0FF09601CC4B27D
:1047B0000DE02A5D51464846FFF733FF08EB4800FD
:1047C00009EB400000F0FF09601CC4B200BF285D87
:1047D0000028E1D1BDE8F0872DE9F05F0746884663
:1047E00091461D464FF0000B00F0C9F88246BAF121
:1047F000000F2ED1002429E0281B401EC1B20A2040
:10480000FEF739FFB9FBF0F00A21B0FBF1F201FB32
:104810001206BBF1000F0DD1681EA0420ADD3EB9A1
:10482000082000FB048120223846FFF7FAFE0BE047
:104830004FF0010B06F13000C2B2082000FB0481EA
:104840003846FFF7EEFE00BF601CC4B2AC42D3DBBB
:1048500031E000242DE0281B401EC1B20A20FEF7E3
:104860000AFFB9FBF0F00A21B0FBF1F201FB1206DE
:10487000BBF1000F0FD1681EA0420CDD4EB90AEB50
:104880004A01490001FB047030224146FFF7C9FE8E
:104890000DE04FF0010B06F13001CAB20AEB4A01FC
:1048A000490001FB04704146FFF7BBFE00BF601CDE
:1048B000C4B2AC42CFDBBDE8F09F2DE9F04705461E
:1048C0000E461746072D01DC702E01DDBDE8F0878E
:1048D00041E04FF000083AE008EB0810224911F8D7
:1048E0001000397888422ED108EB08101E4901EBE0
:1048F000400040787978884225D1002417E0102CB8
:1049000001D1681CC5B2A146E01704EB107000117C
:10491000A4EB0010811908EB0810134B03EB4000C7
:10492000801C025D284600F0B1F8601CC4B2202C47
:10493000E5DB06F11000C6B2681EC5B2702E02DDBE
:10494000A81CC5B2002608F1010000F0FF08B8F16C
:10495000080FC1DBBF1C38780028BAD100BFB5E70B
:1049600012710008126C00080277000805490870EF
:104970007047044800787047034908707047024840
:104980000078704758000020590000200549087041
:104990007047044800787047034908707047024820
:1049A000007870475A0000205B00002001209849E1
:1049B0000870704700209649087070479448007846
:1049C000704710B5044622464FF48061914800F0CC
:1049D000E7FA10BD10B54FF480618F4800F0E8FA97
:1049E00010BD70B5064636B1012E0BD0022E24D074
:1049F000032E3AD109E04FF480628749854800F0E0
:104A00008AFA33E0FFF7E6FF30E0002412E00025E9
:104A10000DE0804800EBC410405D7F4901EBC411FC
:104A2000495D08437B4901EBC41148556D1C802D3D
:104A3000EFDB641C082CEADB18E0002412E0002500
:104A40000DE0744800EBC410405D734901EBC411E4
:104A5000495D88436F4901EBC41148556D1C802D99
:104A6000EFDB641C082CEADB00E000BF00BF70BD78
:104A700002466748007820B1664800EBC210405CEF
:104A80007047654800EBC210405CF9E7604B1B784B
:104A900023B1604B03EBC0135A5403E05E4B03EBAE
:104AA000C0135A547047F0B514467F2801DC3F29E3
:104AB00000DDF0BD564A1278C2B3DCB1CD1701EB70
:104AC0005575ED10534E06EBC5152D5C0B46CE17F4
:104AD00001EB5676F610A1EBC6070126BE40354322
:104AE0000A46CE1701EB5676F6104A4F07EBC6166C
:104AF000355454E0CD1701EB5575ED10454E06EBDE
:104B0000C5152D5C0B46CE1701EB5676F610A1EBC2
:104B1000C6070126BE40B5430A46CE1701EB5676BE
:104B2000F6103C4F07EBC616355438E0FFE7DCB112
:104B3000CD1701EB5575ED10374E06EBC5152D5C05
:104B40000B46CE1701EB5676F610A1EBC6070126F1
:104B5000BE4035430A46CE1701EB5676F6102E4F6F
:104B600007EBC61635541AE0CD1701EB5575ED105D
:104B7000294E06EBC5152D5C0B46CE1701EB56767C
:104B8000F610A1EBC6070126BE40B5430A46CE1774
:104B900001EB5676F610204F07EBC616355400BFD2
:104BA00087E7F0B504467F2C01DC3F2901DD0020BA
:104BB000F0BD1748007898B10A46C81701EB50704D
:104BC000C010144B03EBC010005D0D46CB1701EB7A
:104BD0005373DB10A1EBC303184100F00100E7E7BA
:104BE0000B46C81701EB5070C0100B4F07EBC010FD
:104BF000005D0E46CF1701EB5777FF10A1EBC707FB
:104C0000384100F00100D3E710B500F00DF810BDF9
:104C10005C000020380100203805002010B5FEF7A8
:104C2000CFF8FEF77AF910BD10B50C48FEF738F949
:104C300010BD10B50A48FEF733F910BD09480068E9
:104C400020B108480068401E06490860704710B54A
:104C500004462046FBF737FC10BD00003801002059
:104C60003805002060000020884908707047884A95
:104C70001060884A1160704710B50246012000E0BC
:104C800050430B1EA1F10101FAD110BD70B50446CD
:104C9000FFF775FE05460A2C08D17E4800680830EB
:104CA0007C49086000207A4908601DE00D2C1BD06B
:104CB0000120FFF761FE22467648016874480068CB
:104CC000FFF7AFFC2846FFF757FE71480068801DCC
:104CD0006F4908606D48007830B1084600687A284E
:104CE00002DD0A20FFF7D2FF70BD10B5044603E0D5
:104CF00014F8010BFFF7CAFF20780028F8D110BD87
:104D00000FB42DE9F8434FF00009002609A80090E0
:104D1000A5E0089800780A2870D00D286FD02528C3
:104D20006ED10898401C089008980078632876D0C7
:104D3000642804D0732865D0782879D129E00098B8
:104D400080C800903D46002404E0601CC4B20A20E4
:104D500095FBF0F5002DF8D126443D4616E0611E86
:104D60000A20FFF789FFB5FBF0F000F0FF08611E95
:104D70000A20FFF781FFB5FBF0F100FB115508F1A8
:104D80003001C8B2FFF782FF601EC4B2002CE6D12A
:104D90004FE0009880C800903D46002406E0601C6B
:104DA000C4B22846E91705EB11710D11002DF6D19B
:104DB00026443D461FE0611E1020FFF75DFFB5FB56
:104DC000F0F000F0FF08611E1020FFF755FFB5FB63
:104DD000F0F100FB1155B8F1090F05DC08F13001C5
:104DE000C8B2FFF753FF04E008F15701C8B2FFF75C
:104DF0004DFF601EC4B2002CDDD11AE01BE01FE0A5
:104E000023E00CE0009850F8049B00904846FFF720
:104E10006CFF484600F060F806440AE008E000999C
:104E200011F8042BD0B20091FFF730FF761C00E0A0
:104E300000BF00BF0FE00A20FFF728FF761C0AE042
:104E40000D20FFF723FF761C05E008990878FFF78F
:104E50001DFF761C00BF00BF0898401C08900898F2
:104E6000007800287FF455AF0A48006808303F28D2
:104E700002DB00200749086000200090FEF7C7F819
:104E80003046BDE8F8035DF814FB00006C0000201C
:104E90006400002068000020704700000B4910B536
:104EA000A1F17C020A4CC2E93712372106E000EB7F
:104EB000104342F82130074B00FB03400B1EA1F1C9
:104EC0000101F4DC10BD0120E8E70000B409002076
:104ED000E119D666CD0D010010B5431C02E010F8B3
:104EE000011B71B18107FAD14FF0013202C88C1A4F
:104EF0008C4314EAC211F9D0C01A0A0603D0C01EAE
:104F000010BDC01A10BD0A0401D0801E10BD0902D8
:104F1000FCD0401E10BD032A40F2308010F0030C7C
:104F200000F0158011F8013BBCF1020F624498BFFC
:104F300011F801CB00F8013B38BF11F8013BA2F199
:104F4000040298BF00F801CB38BF00F8013B11F014
:104F5000030300F08580083AC0F0088051F8043B54
:104F6000083A51F804CBA0E80810F5E7121D5CBF21
:104F700051F8043B40F8043BAFF30080D20724BF54
:104F800011F8013B11F801CB48BF11F8012B24BFE8
:104F900000F8013B00F801CB48BF00F8012B704737
:104FA00002F0FF0343EA032242EA024200F002B8A1
:104FB0004FF000020429C0F0128010F0030C00F042
:104FC0001B80CCF1040CBCF1020F18BF00F8012BC0
:104FD000A8BF20F8022BA1EB0C0100F00DB85FEA8E
:104FE000C17C24BF00F8012B00F8012B48BF00F85A
:104FF000012B70474FF0000200B5134694469646C9
:10500000203922BFA0E80C50A0E80C50B1F12001DB
:10501000BFF4F7AF090728BFA0E80C5048BF0CC089
:105020005DF804EB890028BF40F8042B08BF7047E7
:1050300048BF20F8022B11F0804F18BF00F8012B59
:105040007047704770477047704710B500F03AF8E6
:10505000006810BD10B5044600F034F8046010BDBF
:1050600010B5203AC0F00B80B1E81850203AA0E803
:105070001850B1E81850A0E81850BFF4F5AF5FEA37
:10508000027C24BFB1E81850A0E8185044BF18C9EA
:1050900018C0BDE810405FEA827C24BF51F8043B91
:1050A00040F8043B08BF7047D20728BF31F8023BE5
:1050B00048BF11F8012B28BF20F8023B48BF00F879
:1050C000012B7047004870471C0A002000487047B9
:1050D0001C0A00207546FFF7F9FFAE460500694639
:1050E000534620F00700854618B020B5FBF7C6FAF6
:1050F000BDE820404FF000064FF000074FF00008D9
:105100004FF0000B21F00701AC46ACE8C009ACE859
:10511000C009ACE8C009ACE8C0098D46704710B5BD
:105120000446AFF300802046BDE81040FBF749B8C5
:10513000490050EAC12018BF04204A0D18BF40F0B2
:10514000010040F2FF72B2EB515F08BF40F0020075
:10515000012808BF052070472DE9F74F144694B089
:105160000021C4E902111599079121F00045C949B0
:105170008D4206DC1599C4E9000117B00020BDE896
:10518000F08FC549DFF814A3A9423CDD0799C44E4E
:105190000029C44FC44A1599534619DD01F00AF994
:1051A000554506D0C14AC24B01F004F9C4E90001DB
:1051B0000AE04FF0D352BE4B01F0FCF832463B46BA
:1051C00001F0F8F8C4E9000117B00120BDE8F08F44
:1051D00000F084FD554506D0B44AB54B00F07EFD85
:1051E000C4E900010AE04FF0D352B14B00F076FD64
:1051F00032463B4600F072FDC4E9000117B04FF0A3
:10520000FF30BDE8F08FAB49A942159978DB21F05A
:10521000004183468846A84AA84B00F0C1FF0022FF
:10522000A74B00F05BFD00F061FF099000F08DFFDF
:1052300006460F469C4A534600F0B2FF43465A4684
:1052400001F0ACF880468A46984A994B3046394678
:1052500000F0A6FF2A0D01250B924246534601F0AD
:105260009DF8032DC4E9000139D00B98C1F30A5110
:10527000401A05EB45111139814230DA9148C34695
:10528000784400EB0510CDF80CA00C90D0E9002379
:105290003046394600F084FF02460B4604910690E2
:1052A0005846039901F086F880468A4602460B4626
:1052B0005846039901F07EF8049B069A01F07AF8AB
:1052C00083460C9803913946D0E90223304600F01A
:1052D00067FF5A46039B01F06DF86D1CBDE7079808
:1052E0000028A2BF099817B0BDE8F08F616881F06F
:1052F00000416160099817B04042BDE8F08FFFE7B8
:1053000084461598C1F31301C0F30A50A0F2F5309A
:105310004FEA601800F01F06C6F12000139000202D
:105320000690079041F4801E05206D4676B1664ACE
:1053300008EB00017A4452F8213002EB8101B340BE
:105340004A68139922FA01F1194305E05F4908EB15
:105350000002794451F82210A1FB0E27A1FB0C1387
:105360001A449A4234BF0123002303EB070A05EBDA
:105370008003D3E901B70F448F4234BF01210021DC
:1053800093448B4411B1934502D903E0934501D274
:10539000012100E00021C3E901B7514445F8201084
:1053A000011EA0F10100C1DC0298059F00F1005030
:1053B000800F12900298DDE90356800000F0C5FED0
:1053C000834628460D9100F0D7FE6FF01D0201F0D4
:1053D000DAFBCDE90E01304600F0CEFE6FF03D0263
:1053E00001F0D1FB80468A46384600F0C5FE6FF0DA
:1053F0005D0201F0C8FB074642465346119100F09A
:105400006DFCDDE90E2300F069FC5A460D9B00F0AF
:1054100065FC00250E465A4628460D9B00F0CAFF43
:10542000DDE90E2300F0C6FF4246534600F0C2FFFE
:105430003A46119B00F0B2FFDFF898A0244A534689
:1054400000F0AEFE07468846234A244B31462846E4
:1054500000F0A6FE3A46434600F040FC0746884668
:105460004FF0A84253463146284600F099FE3A468E
:10547000434600F033FC159A12F0004F04D0129A04
:1054800081F0004152421292C4E90001129817B013
:10549000BDE8F08FFB21E93F7CD90240FB21F93FB9
:1054A0007370032E8A19A33B000040543163621AC3
:1054B00061B4D03DFB21394183C8C96D305FE43F01
:1054C0000000E03F1C2F0000982E00007A2E000004
:1054D000182D4454FB21F93D3326A611460B113CEF
:1054E0002DE9FF4D21F0004807460C46B8F1795FE1
:1054F00008DA00F0FBFD002801BF0020324904B0AB
:10550000BDE8F08D3A4623461046194600F048FEA5
:10551000054602462D480E460B460621784400F00B
:105520005DF82A46334600F03BFEDDE90223824661
:105530008B463846214600F033FE04460F4652465D
:105540005B462846314600F02BFE22463B4600F0E3
:1055500031FF07468A464FF0FF322846314601F0B8
:1055600012FB1B4A90450ADA3A46534600F022FFE6
:1055700004B00022BDE8F04D134B00F00FBF154AF8
:105580004245A8BFA8F500154FF00004B8BF124D62
:1055900022462B4600F00EFF0646884622462B4642
:1055A0000020094900F006FF04460D463A465346DE
:1055B0003046414600F0FEFE04B022462B46BDE8D0
:1055C000F04D00F0EBBE00000000F03F482C000062
:1055D0003333D33F0000E93F0000D23F2DE9F041D3
:1055E0004F1E00EBC7010446D1E9000115461E46D7
:1055F00037F006020DD02A46334600F0D1FD7F1E5B
:1056000004EBC703D3E9002300F068FB37F0060280
:10561000F1D1022F25D0042F13D0062F18BFBDE8DB
:10562000F0812A46334600F0BBFDD4E90A2300F09E
:1056300055FB2A46334600F0B3FDD4E9082300F0B9
:105640004DFB2A46334600F0ABFDD4E9062300F0BB
:1056500045FB2A46334600F0A3FDD4E9042300F0BD
:105660003DFB2A46334600F09BFDD4E9022300F0BF
:1056700035FB2A46334600F093FDD4E90023BDE80C
:10568000F04100F02BBB00002DE9FF4D054621F055
:10569000004084B00C46B0F1795F0BDA2846FFF782
:1056A00047FD042808BF00F071F8284608B02146DD
:1056B000BDE8F08D2A460B46104600F071FD064607
:1056C0000F462A46234600F06BFD804626488A4650
:1056D00032463B4605217844FFF780FF8346109809
:1056E000029160B3214A224B4046514600F058FDDA
:1056F000CDE900015A4640465146029B00F050FD5C
:1057000082468846DDE906014FF0FF3201F03BFAA0
:105710005246434600F04EFE32463B4600F040FD06
:10572000DDE9062300F046FEDDE9002300F042FE3D
:1057300008B02A462346BDE8F04D00F02FBE0B46C8
:105740005A463046394600F02BFD084A084B00F017
:10575000C5FA4246534600F023FD08B02A462346C8
:10576000BDE8F04D00F0BABA8E2B000049555555F2
:105770005555C5BF012201F006BA00F0AFBA0022AC
:1057800013461046114600F059BB0000024A0020A3
:10579000110701F0F8B9000001FDFFFF2DE9F84FF6
:1057A00004460D4621F0004000917349814211DC0E
:1057B0007249884201DC06D12CB120462946BDE859
:1057C000F84FFFF7D7BF6E48002DCCBF6D496E492B
:1057D000BDE8F88F6D49814211DD6D498142D8BF26
:1057E0004FF0FF366DDD20462946FFF7A1FC042867
:1057F00008BFFFF7CBFF20462946BDE8F88F654973
:10580000654F25F00045814233DD6449814219DD51
:10581000002632464FF080432046294600F05EFACB
:1058200080468A4601222046294601F0ACF9002232
:105830003B4600F0BFFD4246534600F0FFFA0446E7
:105840000D463EE001260022BA463B462046294648
:1058500000F044FA80460F4600225346204629466F
:1058600000F0A8FD42463B4600F0E8FA04460D462B
:1058700027E04B4981421BDDDFF828A102260022E8
:1058800053462046294600F08BFC00223B4600F0A0
:1058900025FA80460F46002253462046294600F04E
:1058A00089FD42463B4600F0C9FA04460D4608E031
:1058B000032622462B4600203B4900F0BFFA04464F
:1058C0000D4622462B461046194600F069FC8B46D1
:1058D000824602460B4600F063FC07460246334808
:1058E00088460B4606217844FFF778FE52465B4611
:1058F00000F056FC82462E488B463A464346052128
:105900007844FFF76BFE3A46434600F049FC0246F6
:105910000B46002E504659460CDA00F0DFF92246BD
:105920002B4600F03DFC01B022462B46BDE8F04F6F
:1059300000F034BD00F0D2F922462B4600F030FCD6
:105940001C4A7A4402EBC603D3E9002300F032FD7F
:1059500022462B4600F02EFD174A7A4402EBC6037E
:10596000D3E9002300F01AFD009A002AB8BF81F0A5
:105970000041BDE8F88F0000000010440000F07FF7
:10598000182D4454FB21F93FFB21F9BF0000DC3FF7
:105990000000203E0000F33F0000F03F0000E63F23
:1059A000008003400000F83F0000F0BF4E280000D8
:1059B0000C280000AA270000722700002DE9F04DF6
:1059C0009446CCF1000423F000464CEA0404524F04
:1059D00046EAD4749A46884621F00042BC4206D872
:1059E000454240EA050442EAD474BC4204D9BDE809
:1059F000F04D6246FFF7C1BEAAF14055A5F17F65A3
:105A000055EA0C040BD0022404EAAA74434DDFF8D3
:105A100010E144EAD87452EA000B04D00CE0BDE86F
:105A2000F04DFFF7BBBE002C14BF012CBDE8F08D7C
:105A3000022C30D0032C32D056EA0C0B0AD0BE42D6
:105A400020D1BA4209D126F0804622F08042334666
:105A5000114617E000291ADB25E0DFF8C8B0FB4447
:105A6000002C04BFDBE90001BDE8F08D012C02BF72
:105A7000DBE9000181F00041BDE8F08D022C0AD085
:105A8000032C0CD0BA4212D1B8F1000F0BDA234824
:105A90002549BDE8F08D28462449BDE8F08D28460B
:105AA0007146BDE8F08D1D482149BDE8F08D921B7F
:105AB00012153C2AC4BF19481D490EDCBAF1000F6B
:105AC000BEBF12F13C0F0020014606DB624600F02B
:105AD000B5F921F00041FFF761FE002C08BFBDE8D9
:105AE000F08D012C04BF81F00041BDE8F08D114A1A
:105AF000114B022C07D000F05DFC2A46BDE8F04DAA
:105B00000A4B00F057BC00F055FC2A46BDE8F04DAA
:105B1000064B00F043BC00000000F07F182D4454F9
:105B2000FB2109C036270000FB21F9BFFB210940FA
:105B3000FB21F93F075C143326A6A13C00B5244B9A
:105B400021F0004287B09A42DCBF0022134629DDD3
:105B5000204B9A4208D140B94FF00100FFF77AFA82
:105B6000FFF70DFE07B000BD03DBFFF703FE07B034
:105B700000BD02AAFFF7F0FA10F0030104BF0DF117
:105B8000080C9CE80F000DD0012001290ED002293D
:105B900014D00DF1080C00909CE80F00FFF774FD85
:105BA00007B000BDFFF79CFC07B000BD0DF1080C6D
:105BB00000909CE80F00FFF767FD05E00DF1080C71
:105BC0009CE80F00FFF78CFC07B081F0004100BD9E
:105BD000FB21E93F0000F07F00B5254B21F000429A
:105BE00087B09A4203DC0022134600922BE0214B3F
:105BF0009A4208D140B94FF00100FFF72BFAFFF7A6
:105C0000BEFD07B000BD03DBFFF7B4FD07B000BD6C
:105C100002AAFFF7A1FA10F003014FF001000DD026
:105C2000012914D002291AD00DF1080C9CE80F00AC
:105C3000FFF756FC07B081F0004100BD0DF1080CE4
:105C400000909CE80F00FFF71FFD07B000BD0DF1AD
:105C5000080C9CE80F00FFF743FC07B000BD0DF1F6
:105C6000080C00909CE80F00FFF70EFDE2E7000033
:105C7000FB21E93F0000F07F21F00042A2F16052D9
:105C8000B2F5801F01F0004328BFD2F17F6C0BD921
:105C90005FEA001C43EAC20242EB507018BF704733
:105CA00028BF20F001007047B2F5801FBCBF184626
:105CB00070474FEA410C1CF5001F02D2084600F065
:105CC00085BE70B500F016FB00000089FFF7F6BF37
:105CD0004FF00040A0F580007047000010B591EA39
:105CE000030F48BF83F0004300F16C83841A71EB0B
:105CF000030C05D2121943EB0C03001B61EB0C01E2
:105D0000DFF824E14FEA1154A4EB135C1EEA430FC1
:105D100018BF9EEA445F73D023EA0E03DCF1200E25
:105D200021EA045143F4801332D322FA0CFE10EB23
:105D30000E0023FA0CFE41EB0E01CCF1200E03FA0B
:105D40000EFE10EB0E0051F10001B1F5801FCCF1F9
:105D5000200E32D201EB045112FA0EF2BDE81040CF
:105D600058BF7047401C38BF5FEA420218BF7047F7
:105D7000002814BF20F0010041F100014FEA410367
:105D800013F5001F38BF7047A1F1C04100F000BB00
:105D9000012A43EB0302ACF1200CDCF11F0E32BFF1
:105DA0004FF0000E23FA0CF310EB030041EB04510B
:105DB000B4EB115FD0D0A1EB045101F5801149087B
:105DC0005FEA300001EB04510ED350F1000038BF00
:105DD00012FA0EFE08D1BDE81040C9E7401C38BFDA
:105DE0005FEA4202CAD1C3E7BDE810404FEA41036F
:105DF00013F5001F38BF7047A1F1C04100F0C8BAC9
:105E00009EEA445F08D011EA5E0FBDE8104004BF6F
:105E100001F0004100207047BDE8104070B500F06F
:105E200069FA00BF64FBBE3E0000E0FF02494FF08C
:105E3000000000F076BE00BF0000F87F2DE9C041F1
:105E400030B4DFF8A0C23CEA111418BF3CEA1314C6
:105E500000F0EC8081EA03051CEA111444EAD574D1
:105E600018BF1CEA131500F0C780A4EB05044FF01F
:105E7000004545EAC12145EAC32341EA505143EABE
:105E8000525304F17F74994204F500344FEAC02064
:105E90004FEAC22208BF904200F09C804FEA13658F
:105EA0000FF24016765D4FEA134506FB05F7C7F182
:105EB000807706FB07F74FEAD737A7FB03687642E0
:105EC000C8F58038A7FB06CE38BFA8F1010807FB4C
:105ED00008E64FF0000EA6FB028CE6FB03CEDCF1D9
:105EE000000CCEF1004E38BFAEF1010EA6FB0C58EF
:105EF0004FF000074FF00005E6FB0E87A1FB08C638
:105F0000A0FB07CE16EB0E0645F10005E1FB076589
:105F100015F1E04E7EBFA4F580345FEA46066D4180
:105F200016F1800745F100054FEA17274FEA06668C
:105F300047EA0567A6F1DE46B6F1805F4FEA152510
:105F40001FD9384624F0010C05EBC471BCF1FE6F7B
:105F500001EB0C1102D8F0BCBDE8008124425CBF0B
:105F600001F5801E9EEAC47F02D4F0BCBDE800812A
:105F7000244238D4F0BCA1F1C041BDE8004100F09A
:105F800007BA4FEAD22242EA43524FEAD323A7FB91
:105F900002864FEAD02040EA415007FB03661EEA22
:105FA0000E0F4FEAD12105FB026658BFA6EB005643
:105FB000B6EB00564FEA520E4EEAC37E18EB0E0EB9
:105FC00056EB530EBDD518EB02085E417F1C55F110
:105FD0000005B6E74FF480154FF000074FF00006BC
:105FE0004FF00008ADE7F0BC4FF0000001F1C041F8
:105FF00001F00041BDE8008111EA0C1F0CEA131505
:1060000000D00CE013EA0C1F00F025804FF00000D8
:10601000F0BC81EA030101F00041BDE80081F0BC61
:10602000BDE8004181EA030100F0B2B9F0BCBDE86F
:10603000004170B500F05EF9097EFC3E00F007B843
:1060400081EA03014FF0000001F00041704781EA4E
:10605000030100F09DB9F0BCBDE800414FF0000025
:1060600021497047FFFDFBF9F7F5F4F2F0EEEDEB97
:10607000E9E8E6E4E3E1E0DEDDDBDAD8D7D5D4D346
:10608000D1D0CFCDCCCBCAC8C7C6C5C4C2C1C0BF92
:10609000BEBDBCBBBAB9B8B7B6B5B4B3B2B1B0AF98
:1060A000AEADACABAAA9A8A8A7A6A5A4A3A3A2A17C
:1060B000A09F9F9E9D9C9C9B9A9999989797969537
:1060C00095949393929191908F8F8E8E8D8C8C8BD3
:1060D0008B8A89898888878786858584848383825B
:1060E000828181800000FF070000F87F4FEA4103B2
:1060F0004FEA5353A3F58063D3F11E03C8BFD3F116
:10610000210C0CDD4FF0004242EAC12242EA50521B
:1061100032FA03FC8CEAE17CACEBE1707047102BA7
:10612000C4BF0020704703F5787CBCF1FF3F04D06A
:106130006FF0004282EA2100704770B500F0DAF893
:106140004992248000207047F2E710F0004248BFD7
:106150004042B0FA80F310FA03F10AD0C3F11D03F4
:1061600003F580634FEA415002EB035202EBD12169
:1061700070474FF000007047B0FA80F310FA03F157
:106180000AD0C3F11D0303F580634FEA41504FEA83
:10619000035202EBD12170474FF00000704700001E
:1061A000DFF848C170B51CEA111E1EBF1CEA1315AA
:1061B0009EEA0C0F95EA0C0F00F06F8081EA030451
:1061C00023EA4C134EEAD47E21EA4C1141F48011AB
:1061D00043F48013AE44A1FB024CA0FB0365AEF177
:1061E0007F7E361955EB0C05A1FB034C4CF10003E7
:1061F000A0FB021C16EB0C06654153F1000309429B
:1062000018BF46F0010613F4007F0BD14FEA0331AB
:106210004FEA0530340341EA155140EA16506FF059
:1062200003020AE04FEAC3214FEAC520F40241EA23
:10623000555140EA56506FF0020202EB2E4201EB3C
:10624000025585EACE710AD05FEA440C18BF24F0EB
:10625000004450F1000041F1000120EAD47040F206
:10626000FE7C624500D270BDA84214BF4FF080444E
:106270004FF04044002E08BF0024BEF1806FA8BF3D
:10628000A1F1C041BDE8704080F282804FF0000073
:1062900001F1C04101F0004170479EEA0C0F0CEA89
:1062A000131518BF95EA0C0F06D04FF0000081EAD5
:1062B000030E0EF0004170BD00F01CF88900013E95
:1062C00000F007B800F009B84FEA430C5FEA5C5CE5
:1062D00008D081EA030100F05BB84FEA410C5FEAA5
:1062E0005C5CF6D14FF00000014970470000FF07E9
:1062F0000000F87F0EF1020E2EF0030E5EF8046B24
:10630000364205D4012A43EB030515F5001F12D8C8
:10631000012841EB010C1CF5001F0CD80ED14FEAEF
:10632000D17C15F5001F0CEB4C0C0CF1020C08BFD6
:106330004CEBD37C04E04FF0080C01E04FEAD37C37
:106340000CEB4C0526FA05F606F00706B6F1040C30
:1063500006D20EEB860CBDE870404CF0010C604795
:10636000DFE80CF0090B02024FF000414FF0000093
:10637000A1F5002170BD19461046012851EB01041A
:1063800018BFD4F5001484BF002001F0004170BD97
:106390000808A0F500114FEA3101704791EA030F98
:1063A00010B581F000413FF5A1AC83F0004300F04F
:1063B00009B8000010B591EA030F48BF83F000430D
:1063C0003FF594AC841A71EB030C07D212198CF0D0
:1063D000004C43EB0C03001B61EB0C01DFF8A4E164
:1063E0004FEA1154A4EB135C1EEA430F18BF9EEA58
:1063F000445F00F0B08023EA6E03524221EA045168
:10640000C3EB6E0338BF5B1EDCF1200E25D322FAEE
:106410000CFE10EB0E0043FA0CFE41EB0E01CCF12A
:10642000200E03FA0EFE10EB0E0051F10001CCF12C
:10643000200E29D412FA0EF201EB0451BDE81040EF
:1064400058BF7047401C1CBFB2F1004F7047002876
:106450000CBF491C20F00100704712EB020E43EB09
:10646000030218BF4FF0010E4EEA4202ACF1200CBD
:10647000DCF11E0E54D943FA0CFE10EB0E0051F164
:10648000FF31CCF11E0ED5D50EF1010E12FA0EFE23
:10649000404141EB010101EB445C5FEA5C5C10D9D7
:1064A00010EBDE7001EB045138BFBEF1004FBDE8C8
:1064B000104018BF704700280CBF491C20F0010095
:1064C000704730D24FEAD42C11F5001124F4006447
:1064D0001BD0B1FA81F20B3AA41AA41ED2F1200308
:1064E000914030FA03F31943904001EBCC71002C3A
:1064F00001EB0451BDE81040A8BF704701F1C04155
:106500004FF0000001F000417047B0FA80F310FA3C
:1065100003F100D110BDE41A173C4805C90AE4E7AD
:1065200001EB045110BD491001EB0451BDE81040CE
:106530004FEA300002E04FF0000170474A0008BF08
:106540000042F8D0B2F5001F28BF704701F00041AB
:106550004FF0000070479EEA445F07D011EA5E0FDB
:10656000BDE8104004BF002100207047BDE8104086
:1065700070B5FFF7BFFE00BF40DFF63E83F000417D
:10658000104670470000E0FF43004FEAD30C4FEA8B
:106590003C0C43401FBF40070CF1605113F0FE4F0D
:1065A00070471CF0006F03D100200CF000417047D1
:1065B0000CF0004343EA507010B540EACC0000F004
:1065C000BFF900BF000000924FEA0001FFF7E0BEF4
:1065D0004FF000414FF00000A1F50021704700008E
:1065E00090EA010F48BF81F0004100F12C82421A6D
:1065F0003CBF801A89184FEAD0524FF07F4C1CEAFA
:10660000410FA2EBD15318BF9CEA026F00F03B8010
:106610004FF0004C4CEA00204CEA012121FA03FC27
:1066200010EB0C0C1ED202F1FF325FEA1C2040EB93
:10663000C25038BF70471CF07F0F4FEA400C18BFA4
:10664000BCF17F4F38BF7047C3F12003994008BFAA
:1066500020F00100BCF17F4F38BF7047A0F1C0406F
:1066600000F0B4B94FEA3C00000A40EBC25028BF2A
:106670001CF0FF0F4FEA400CE6D018BFBCF17F4F73
:1066800038BF7047EAE79CEA026F05D010EA5C0F5A
:1066900008BF00F00040704710B500F051F900BF8E
:1066A00064FBBE3E401058BFC0F14040491058BF87
:1066B000C1F140418142EFF3008070474FF47F0CFD
:1066C0001CEAD0121EBF1CEAD11392EA0C0F93EA07
:1066D0000C0F00F0858090EA010F48BF42F48072F1
:1066E00040F4000C41F400002CF07F4120F07F408A
:1066F00000B58142A2EB03020FF2081CACEB504E36
:10670000C0F100009EF800E04FEA4E0E00FB0EFCC8
:1067100038BF49004FEA2C1C02F5FA020CFB0EF3BD
:106720004FEACE1E4FEA112C4FEAC1210EEB635EF9
:1067300042EB22420EFB0CFC4FEA1C5300FB031100
:106740004FEA112C4FEA01310EFB0CFC4FEADC4CF6
:1067500000FB0C11C14228BF09184CEB03335DF854
:1067600004EB10EB410143EBC250B2F57C0F38BF94
:10677000704729D512F0F00F1CBF00F1C04000F0A7
:1067800000407047008182838485868788898B8C4E
:106790008D8E8F919293959697999A9C9D9FA0A28A
:1067A000A3A5A7A8AAACAEB0B2B3B5B7B9BCBEC0DA
:1067B000C2C5C7C9CCCED1D4D7D9DCDFE2E6E9EC7B
:1067C000F0F3F7FAFE0000004FEA400C0CF1807C79
:1067D000BCF17E4F28BF7047B0F1C04000F0F6B862
:1067E00090EA010F0CEAD11348BF42F4807262456F
:1067F00038BF634507D213F47F0F16D080EA01003B
:1068000000F00040704710B500F09AF8097EFC3E99
:1068100000F005B880EA010000F00040704780EA0F
:10682000010000F0004000F0D1B812F47F0F04BF67
:106830000248704780EA010000F0C8B80000C07F3D
:1068400050EA010C00F113801CF5000F58BFBCF595
:10685000000F01D48842704707D710F5000F58BFCA
:1068600011F5000F15D488427047894270471CF516
:10687000000F04D5BCF5000FF7D5814270474FF0EB
:10688000807C1CEB400F38BF1CEB410F01D28142D2
:10689000704710B500F054F8922449004FF00050B2
:1068A0004FF08051FFF7FEBE10F0004148BF40425C
:1068B000B0FA80F310FA03F2C3F19D030BD051EA52
:1068C000C35101EB1220530638BF704700F101009D
:1068D00008BF20F00100704750EA010C00F113805E
:1068E0001CF5000F58BFBCF5000F01D4884270475B
:1068F00007D710F5000F58BF11F5000F15D48842C7
:106900007047894270471CF5000F04D5BCF5000F95
:10691000F7D5814270474FF0807C1CEB400F38BFA9
:106920001CEB410F01D28142704710B500F008F80E
:10693000922449004FF000504FF08051FFF7B2BE53
:106940000EF1020E2EF0030E5EF8044B244204D426
:106950004FEA4102B2F17F4F11D84FEA4003B3F141
:106960007F4F0CD80ED14FEAD07CB2F17F4F0CEBA9
:106970004C0C0CF1020C08BF4CEBD17C04E04FF046
:10698000080C01E04FEAD17C0CEB4C0324FA03F431
:1069900004F00704B4F1040C06D20EEB840CBDE83D
:1069A00010404CF0010C6047DFE80CF007080202D1
:1069B0004FF00040A0F5800010BD0846420018BF0F
:1069C000D2F1807288BF00F0004010BDFF2141EA83
:1069D000D050C005704751EA000C00F113801CF53F
:1069E000000F58BFBCF5000F01D48142704707D794
:1069F00011F5000F58BF10F5000F15D481427047F4
:106A0000894270471CF5000F04D5BCF5000FF7D57F
:106A1000884270474FF0807C1CEB410F38BF1CEB65
:106A2000400F01D28842704780EA010081EA0001EC
:106A300080EA0100FFF779BF90EA010F48BF81F0BB
:106A400000413FF5D4AD421A04D882F00042A0EBD9
:106A5000020011444FEAD0524FF07F4C1CEA410F24
:106A6000A2EBD15318BF9CEA026F4AD04FF0004C02
:106A70004CEA00204CEA012121FA03FCB0EB0C0C9B
:106A80000FD412F0FE0F36D05FEA4C001DD5001275
:106A900040EBC25038BF70471CF03F0F18BF704723
:106AA0000BE0A2F101025FEA1C2040EBC25038BFAC
:106AB00070471CF07F0F18BF7047C3F12003994047
:106AC00014BF401E20F00100704780084FEA1223D7
:106AD00008BF7047B0FA80FCA2EB0C02CCF1280C86
:106AE00060FA0CF093EA122F04BF00EBC25070471B
:106AF0004FEAC3707047130A5FEADC1008BF7047A3
:106B0000F6E79CEA026F04D010EA5C0F08BF002091
:106B1000704710B5FFF714FF40DFF63E81F00040EC
:106B200070470CF00F03092B08BF082000F05980B4
:106B30000A2B0BD0082B18BF704708BF1CF0400F62
:106B40000AD04FF000004FF0000170471CF0400FDA
:106B500018BF4FF0004070471CF0100F08D020F015
:106B6000704300F07F4242EAD3014FEA437070471E
:106B700000F0604021F07F4242EA000201F07F40D5
:106B800040EA727070474FF0FF0C4CF4E06C1CEA66
:106B900011531CBF9CEA030C9445C2BFDA4201EBBF
:106BA00002517047002B0DD0BCF1000F0FD0002A0E
:106BB00001F00041A4BF41F0E04141F07F614FF09E
:106BC0000000704701F000414FF00000704750EAAC
:106BD00001334FF09B0C18BF4CF0806C7FF426A95A
:106BE00070471CF4801F11D01CF4E02F03D06FEA13
:106BF000CC31490070474FF04050EFF3008222F053
:106C0000704242EA000282F3008870474FF00000B1
:106C1000704700000000003E5B4F5B3E3E6B4F6BD9
:106C20003E1C3E7C3E1C183C7E3C181C577D571C6D
:106C30001C5E7F5E1C00183C1800FFE7C3E7FF00E6
:106C400018241800FFE7DBE7FF30483A060E262934
:106C5000792926407F050507407F05253F5A3CE7F7
:106C60003C5A7F3E1C1C08081C1C3E7F14227F22BD
:106C7000145F5F005F5F06097F017F006689956A88
:106C8000606060606094A2FFA29408047E04081013
:106C9000207E201008082A1C08081C2A08081E103C
:106CA0001010100C1E0C1E0C30383E3830060E3EF4
:106CB0000E06000000000000005F00000007000753
:106CC00000147F147F14242A7F2A1223130864627D
:106CD00036495620500008070300001C22410000DE
:106CE00041221C002A1C7F1C2A08083E080800803C
:106CF00070300008080808080000606000201008D4
:106D000004023E5149453E00427F400072494949D4
:106D1000462141494D331814127F10274545453906
:106D20003C4A49493141211109073649494936460A
:106D30004949291E000014000000403400000008EA
:106D4000142241141414141400412214080201598D
:106D500009063E415D594E7C1211127C7F4949491A
:106D6000363E414141227F4141413E7F49494941AF
:106D70007F090909013E414151737F0808087F00DE
:106D8000417F41002040413F017F081422417F4064
:106D90004040407F021C027F7F0408107F3E41413B
:106DA000413E7F090909063E4151215E7F091929AB
:106DB00046264949493203017F01033F4040403F95
:106DC0001F2040201F3F4038403F631408146303D6
:106DD000047804036159494D43007F414141020455
:106DE000081020004141417F04020102044040405C
:106DF0004040000307080020545478407F28444452
:106E0000383844444428384444287F38545454186B
:106E100000087E090218A4A49C787F080404780066
:106E2000447D40002040403D007F10284400004148
:106E30007F40007C047804787C080404783844445B
:106E40004438FC1824241818242418FC7C08040452
:106E500008485454542404043F44243C4040207CBB
:106E60001C2040201C3C4030403C44281028444C0E
:106E70009090907C4464544C4400083641000000DB
:106E8000770000004136080002010204023C26237C
:106E9000263C1EA1A161123A4040207A3854545534
:106EA0005921555579412154547841215554784000
:106EB00020545579400C1E52721239555555593986
:106EC0005454545939555454580000457C410002DB
:106ED000457D420001457C40F0292429F0F0282519
:106EE00028F07C545545002054547C547C0A097F7A
:106EF0004932494949323248484832324A48483092
:106F00003A4141217A3A42402078009DA0A07D3943
:106F1000444444393D4040403D3C24FF2424487EC5
:106F20004943662B2FFC2F2BFF0929F620C0887EB2
:106F3000090320545479410000447D413048484AB7
:106F400032384040227A007A0A0A727D0D19317D6A
:106F50002629292F28262929292630484D4020383E
:106F60000808080808080808382F10C8ACBA2F10FD
:106F70002834FA00007B000008142A142222142A64
:106F800014089500220095AA005500AAAA55AA55F2
:106F9000AA000000FF00101010FF00141414FF00DE
:106FA0001010FF00FF1010F010F0141414FC001467
:106FB00014F700FF0000FF00FF1414F404FC141485
:106FC00017101F10101F101F1414141F0010101082
:106FD000F0000000001F101010101F10101010F013
:106FE00010000000FF101010101010101010FF10F3
:106FF000000000FF140000FF00FF00001F1017003A
:1070000000FC04F414141710171414F404F4000012
:10701000FF00F714141414141414F700F7141414C4
:10702000171410101F101F141414F4141010F01063
:10703000F000001F101F0000001F14000000FC14CF
:107040000000F010F01010FF10FF141414FF1410C3
:1070500010101F00000000F010FFFFFFFFFFF0F016
:10706000F0F0F0FFFFFF0000000000FFFF0F0F0F28
:107070000F0F38444438447C2A2A3E147E0202060C
:1070800006027E027E0263554941633844443C0453
:10709000407E201E2006027E020299A5E7A5991CCB
:1070A0002A492A1C4C7201724C304A4D4D303048EE
:1070B000784830BC625A463D3E494949007E01014C
:1070C000017E2A2A2A2A2A44445F444440514A44E1
:1070D0004040444A51400000FF0103E080FF0000AF
:1070E00008086B6B083612362436060F090F0600A7
:1070F0000018180000001010003040FF0101001FB0
:1071000001011E00191D1712003C3C3C3C00000010
:10711000000000000000000000000000000000006F
:107120000000000000F80000000000000033300004
:10713000000000100C06100C06000000000000000B
:10714000000040C07840C0784000043F04043F0481
:107150000400007088FC08300000001820FF211E89
:107160000000F008F000E018000000211C031E21C0
:107170001E0000F00888700000001E21232419273B
:10718000211010160E00000000000000000000009A
:107190000000000000E018040200000000071820B2
:1071A000400000020418E000000000402018070022
:1071B0000000404080F0804040000202010F0102C8
:1071C0000200000000F0000000000101011F0101A9
:1071D0000100000000000000000080B0700000000E
:1071E000000000000000000000000001010101019A
:1071F000010100000000000000000030300000002D
:107200000000000000008060180400601806010003
:10721000000000E010080810E000000F102020100F
:107220000F00001010F8000000000020203F202078
:10723000000000700808088870000030282422210F
:1072400030000030088888483000001820202011C5
:107250000E000000C02010F8000000070424243FA6
:10726000240000F80888880808000019212020114F
:107270000E0000E0108888180000000F1120201177
:107280000E0000380808C83808000000003F000061
:1072900000000070880808887000001C222121224C
:1072A0001C0000E010080810E0000000312222114C
:1072B0000F00000000C0C0000000000000303000DF
:1072C000000000000080000000000000806000005E
:1072D0000000000080402010080000010204081097
:1072E00020004040404040404000040404040404A6
:1072F0000400000810204080000000201008040254
:107300000100007048080808F00000000030360155
:107310000000C030C828E810E00007182724231414
:107320000B000000C038E0000000203C23020227D0
:10733000382008F8888888700000203F202020111D
:107340000E00C03008080808380007182020201058
:10735000080008F808080810E000203F202020104E
:107360000F0008F88888E8081000203F202023201C
:10737000180008F88888E8081000203F2000030063
:107380000000C03008080838000007182020221E1E
:10739000020008F808000008F808203F2101012138
:1073A0003F20000808F8080800000020203F2020A7
:1073B000000000000808F8080800C08080807F00F6
:1073C000000008F888C028180800203F200126384F
:1073D000200008F8080000000000203F20202020A6
:1073E000300008F8F800F8F80800203F003F003FA0
:1073F000200008F830C00008F808203F20000718D7
:107400003F00E01008080810E0000F1020202010B6
:107410000F0008F808080808F000203F21010101CA
:107420000000E01008080810E0000F18242438506D
:107430004F0008F8888888887000203F2000030CDF
:1074400030200070880808083800003820212122E8
:107450001C00180808F8080818000000203F200049
:10746000000008F808000008F808001F202020206D
:107470001F000878880000C83808000007380E018F
:107480000000F80800F80008F800033C0700073C7B
:107490000300081868808068180820302C03032C2B
:1074A00030200838C800C83808000000203F2000FD
:1074B000000010080808C8380800203826212020BD
:1074C0001800000000FE020202000000007F4040A1
:1074D0004000000C30C00000000000000001063831
:1074E000C00000020202FE000000004040407F0099
:1074F000000000000402020204000000000000007E
:10750000000000000000000000008080808080807B
:107510008080000202040000000000000000000063
:1075200000000000808080800000001924222222B8
:107530003F2008F8008080000000003F112020114B
:107540000E000000008080800000000E112020202E
:107550001100000000808088F800000E112020102B
:107560003F200000808080800000001F2222222215
:107570001300008080F0888888180020203F202099
:1075800000000000808080808000006B94949493C1
:10759000600008F8008080800000203F210000206B
:1075A0003F2000809898000000000020203F20200D
:1075B0000000000000809898000000C08080807F5C
:1075C000000008F8000080808000203F24022D3059
:1075D0002000000808F8000000000020203F2020C4
:1075E00000008080808080808000203F20003F203D
:1075F000003F8080008080800000203F210000202C
:107600003F200000808080800000001F202020207C
:107610001F00808000808000000080FFA1202011DA
:107620000E000000008080808000000E112020A04D
:10763000FF80808080008080800020203F2120000B
:1076400001000000808080808000003324242424F6
:107650001900008080E0808000000000001F2020D2
:1076600000008080000000808000001F202020108B
:107670003F20808080000080808000010E3008065E
:10768000010080800080008080800F300C030C306F
:107690000F0000808000808080000020312E0E319D
:1076A0002000808080000080808080818E7018069D
:1076B000010000808080808080000021302C222109
:1076C000300000000000807C020200000000003F4B
:1076D000404000000000FF00000000000000FF002C
:1076E00000000002027C800000000040403F0000DB
:1076F0000000000601010202040400000000000076
:107700000000D2BB808080808080808080808080EC
:1077100080808000000000000000000000000000E9
:1077200000000000D6BB000000FE020202020202BE
:1077300002FE000000000080402319010101010148
:10774000091320C00000B3CC2424A4FE2322003E51
:1077500022222222223E0000080601FF01064049A3
:1077600049497F4949494100D0F20000FC04040422
:107770001415569454341404040040300F000101D1
:107780000141817F010101050300D4B52030AC63C4
:107790003000202CAB6AAA2A3A26A00022672212C7
:1077A000120049492452897F020D10000000003761
:1077B000CD821241411282CD37000000000C3249C7
:1077C000848D792525798D8449320C0000000000D4
:1077D00000000F39E163120E8484040606048484D9
:1077E0000E1263E1390F00000000000000000000ED
:1077F000000000808F70C0819B3360585860331B3D
:1078000081C070DB80000000000000000000F098E4
:107810000C06C3E1207E3FA3E785257E7E2585C734
:10782000A33F7E30E1C3060C98F000000000000189
:1078300001073F40BCE2A2DC603F202020203F60E7
:10784000DCA6E2BE48300F0101000000000000008D
:1078500000000000000000003EFFC3030303060613
:107860000E8CDCF8787030301818181818181818A2
:1078700030307078F8DC8C0E0606030303C3FF3E3D
:1078800000000000000000000000000000000000F8
:1078900000000000000000000000030F9CF8781EAC
:1078A00007030180C0C0C08000000000000000008D
:1078B00080C0C0C0800103070E7CF89C0F0300004D
:1078C00000000000000000000000000000000000B8
:1078D0000000000000000000000000007FFF8000AA
:1078E00000000007CFCC0D07030020E0E0200003DC
:1078F000070DCCCF070000000080DF1F0000000054
:107900000000000000000000000000000000000077
:107910000000000000000000000080C0E06337BEEF
:10792000F8F0E0C0818307061E3E776363773E1E52
:1079300006078381C0E0F0F8BC3F63E0C080000030
:107940000000000000000000000000000000000037
:10795000000080C0E070381C0E070301000000FF2B
:10796000FF03070C1D1B3333666666F6F666666614
:1079700033331B190D0603FFFF0000000103070E40
:107980001C3870E0C0800000000000000000000013
:107990007EFF830100000000C0F078FCCE06063FA9
:1079A0003F0606ECFC78F0C0001C3E37373E1C005A
:1079B00000E0F078FCCE06077F3E0606EC7C78E01F
:1079C000800000000183FF7E000000000000000036
:1079D00000000103030303FFFF000080F0780C0C9C
:1079E0000C1CF8F0000083FF7C0000000000000089
:1079F000FFFF0000C0F0380C0C0C1CF8E00000C7C2
:107A0000FF17030303010100000000000000000055
:107A10000000000000000000030F387067CFDCD8C2
:107A2000D8DCEF63381C0F070606060606060604B8
:107A3000070F1E387167CEDCD8D8CC6F63381E0FA5
:107A40000300000000000000000000000000000033
:107A50000000000000000000000000000000000026
:107A60000000000000000000000000000000000016
:107A70000000000000000000000000000000000006
:107A80000000000000000000008080808080808076
:107A900000000000000000000000000000000000E6
:107AA00000000000000000000000000000000000D6
:107AB000000000000000E0E0C00000000000000046
:107AC00000000000000000000000000000000000B6
:107AD00000000000000080C0C0C0000000E0F0FC1A
:107AE000FEFFFFFFC0C0C0C0C0C0C0C0C0000000DB
:107AF0000000000000000000000000000000000086
:107B00000080E0F8FCFEFEE74747470707074747C6
:107B100047E7FEFEFCF8E0800000000000000000E7
:107B200000000000000000000000000060E0F0F035
:107B3000F0F0F0F8FCFFFFFFFFFFFCF8F0F0F0F0D2
:107B4000F0E0600000000000000000000000000005
:107B5000000000000000FFFFFFFF000000FFFFFF2C
:107B6000FFFFFFFFFFFFFFFFFFFFFF1F03000000FE
:107B70000000000000000000000000000000000005
:107B8000003FFFFFFFFF8180C0FCFE000000FEFC05
:107B9000C08081FFFFFFFF3F0000000000000000E9
:107BA00000000000000000000000000000000103D1
:107BB00007FFFFFFFFFFFFFFFFFFFFFFFFFF0703C1
:107BC00001000000000000000000000000000000B4
:107BD000000000000000070F0F0F0000000F0F0F44
:107BE0000F0F0F0F0F0F0F0F0F0700000000000007
:107BF0000000000000000000000000000000000085
:107C000000000003070F0F1F1F3F3F3C3C3C3F3F5E
:107C10001F1F0F0F070300000000000000000000FE
:107C20000000000000000000000000000000000054
:107C30000F0F0F0707030301030303070F0F0F00C5
:107C40000000000000000000000000000000000034
:107C50000000000000000000000000000000000024
:107C60000000000000000000000000000000000014
:107C70000000000000000000000000000000000004
:107C800000000000000000000000000000000000F4
:107C900000000000000000000000000000000000E4
:107CA00000000000000000000000000000000000D4
:107CB00000000000000000000000000000000000C4
:107CC000000000000000000000000000FFFFFFFFB8
:107CD000FFFFFFFFFFFFFFFFFFFFFFFFFFFFFFFFB4
:107CE000FFFFFF7F7F3F3F3F3F3F3F7F7FFFFFFF24
:107CF000FFFFFFFFFFFFFF7F7F7F7F7F7F7F7F7F14
:107D00007F7FFFFFFFFFFFFFFFFFFFFFFFFFFFFF83
:107D1000FFFFFFFFFFFFFFFFFFFFFFFFFFFFFFFF73
:107D2000FFFFFFFFFFFFFFFFFFFFFFFFFFFFFFFF63
:107D3000FFFFFFFFFFFFFFFFFFFFFFFFFFFFFFFF53
:107D4000FFFFFFFFFFFFFFFFFFFFFFFFFFFFFFFF43
:107D5000FFFFFFFFFFFFFFFFFFFFFFFFFFFFFFFF33
:107D60000701000000000000000080E0F0F8F9FDCD
:107D7000FDFF7E7E3E3F7F7F7F7FFFFFFFFFFFFF98
:107D8000FFFFFFFFFF7E7F7D7DFBFBF7E3C18100EF
:107D900000000101010307071FFFFFFFFFFFFFFFB7
:107DA000FFFFFFFFFFFFFFFFFFFFFFFFFFFFFFFFE3
:107DB000FFFFFFFFFFFFFFFFFFFFFFFFFFFFFFFFD3
:107DC000FFFFFFFFFFFFFFFFFFFFFFFFFFFFFFFFC3
:107DD000FFFFFFFFFFFFFFFFFFFFFFFFFFFFFFFFB3
:107DE000FCF0E0C0800080F0FCFFFFFFFFFFFFFC25
:107DF000F8F0F1F1F1C0CCCCC0E0E0F0F9FDFCFF0F
:107E0000F3E1E1C0C0CCCCFCF0FBFFFFFFFFFFFFC4
:107E1000FEF0C0008080C0E0F0FFFFFFFFFFFFFF2B
:107E2000FFFFFFFFFFFFFFFFFFFFFBE10103073F36
:107E3000010103FFFF3F1F1FFFFFFFFFFFFFFFFFCA
:107E4000FFFFFFFFFFFFFFFFFFFFFFFFFFFFFFFF42
:107E5000FFFFFFFFFFFFFFFFFFFFFFFFFFFFFFFF32
:107E6000FFFFFF7FCFF8FFFFFFFFFFFFFFFFFFFFD9
:107E7000FFFFFFFFFFFFFFFFFFE7EFCFCF8F9F9FCA
:107E80009F9FCFDFFFFFFFEFEFFFFFFFFFFFFFFF32
:107E9000FFFFFFFEF31FFFFFFFFFFFFFFFFFFFFFDF
:107EA000FFFF3F0701E1F0F8F8F0C1030700000011
:107EB000000000010000001EFFFFFFFFFFFFFFFFAB
:107EC000FFFFFFFFFFFFFFFFFFFFFFFFFFFFFFFFC2
:107ED000FFFFFFFFFFFFFFFFFFFFFFFFFFFFFFFFB2
:107EE000FFFFFFC03FFFFFFFFFFFFFFFFFFFFFFFA1
:107EF000FFFFF9E1811118181819313131393B337D
:107F000033333333330387C7EFFFFFFFFFFFFFFF39
:107F1000FFFFFFFF7FE0FFFFFFFFFFFFFFFFFFFF10
:107F2000FFFFFCF0F0E0E1E1E1E180000000000093
:107F300000000000000080E0FFFFFFFFFFFFFFFFE9
:107F4000FFFFFFFFFFFFFFFFFFFFFFFFFFFFFFFF41
:107F5000FFFFFFFFFFFFFFFFFFFFFFFFFFFFFFFF31
:107F6000FFFFFFFFFFFCFB772F1F1F3F3F7F7F7F40
:107F70007FFFFFFFFFFFFEEEE6C6CECECECECEEEFB
:107F8000FEFCFCFEFEFFFFFFFFFFFF7F7F7F3F1F2A
:107F90001F0F070102070F1F3FFFFFFFFFFFFFFF3C
:107FA000FFFFFFFFFFFFFFFFFFFF0F0000000000CC
:107FB0000000000000FFFFFFFFFFFFFFFFFFFFFFCC
:107FC000FFFFFFFFFFFFFFFFFFFFFFFFFFFFFFFFC1
:107FD000FFFFFFFFFFFFFFFFFFFFFFFFFFFFFFFFB1
:107FE000FFFFFF1F0703010000000000000000006A
:107FF0000000000000000000010101010101010179
:108000000101010101010100000000000000000069
:10801000000000000000000000010303070707073D
:10802000070707070707030301000000000000001F
:1080300000000000E0FFFFFFFFFFFFFFFFFFFFFF6B
:10804000FFFFFFFFFFFFFFFFFFFFFFFFFFFFFFFF40
:10805000FFFFFFFFFFFFFFFFFFFFFFFFFFFFFFFF30
:10806000FFFFF0E0E0C0C0C0C0C0C0C0C0C0C0C022
:10807000C0C0C0C0C0C0C0C0C0C0C0C0C0C0C0C000
:10808000C0C0C0C0C0C0C0C0C0C0C0C0C0C0C08030
:1080900080C0C0C0C0C0C0C0C0C0C0C0C0C0C0C020
:1080A000C0C0C0C0C0C0E0E0E0E0E0E0F0F0F0F848
:1080B000F8FCFEFFFFFFFFFFFFFFFFFFFFFFFFFFDB
:1080C000FFFFFFFFFFFFFFFFFFFFFFFF00000000BC
:1080D0004FBB610567ACDD3F182D4454FB21E93FE0
:1080E0009BF681D20B73EF3F182D4454FB21F93FCF
:1080F000E2652F227F2B7A3C075C143326A6813C55
:10810000BDCBF07A8807703C075C143326A6913CFF
:10811000C4EB98999999C9BF711623FEC671BCBF6B
:108120006D9A74AFF2B0B3BF9AFDDE522DDEADBFD3
:108130002F6C6A2C44B4A2BF0D5555555555D53FEB
:10814000FF8300922449C23F6E204CC5CD45B73F06
:10815000513DD0A0660DB13FEB0D76244B7BA93F7E
:1081600011DA22E33AAD903F4C5555555555A53F90
:108170007751C1166CC156BF9015CB19A001FA3EBC
:10818000AD529C804F7E92BEC4B1B4BD9EEE213EE6
:10819000D43888BEE9FAA8BD000000000000000045
:1081A00000004054FB21F93F3163621A61B4D03DB5
:1081B0000000601A61B4D03D7370032E8A19A33B8E
:1081C0000000002E8A19A33BC14920259A837B39E0
:1081D00000000000000000006E83F9A22915444E43
:1081E000D15727FCC0DD34F5999562DB4190433CC3
:1081F000AB6351FE61C5BBDE3A6E24B7E0D24D429F
:10820000EA2E49061C92D1091CEB1DFE3EA729B19E
:10821000F53582E88444BB2E26709CE9417E5FB42C
:1082200039D69139F43953838B5F849C3B28F9BD4F
:10823000FF97F81F0F9805DE8B112FEF1F6D0A5A5D
:10824000CF7E366DB709CB27663F464F2DEA5F9E3E
:10825000C7BA27757BF1E5EBF739073DEA92528AF9
:10826000B15FFB6B085D8D1FA6F810111111813FE6
:10827000D561C119A0012ABF7DFEB157E31DC73EDC
:10828000EB9C2B8AE6E55ABE7CD5CF5A3AD9E53D20
:10829000B082000800000020700000006C0100089F
:1082A00020830008700000201010000088010008E2
:1082B0000000000000A24A040000000000000000CE
:1082C0000102030406070809000000000000000086
:1082D000000000000000010203040102030406077D
:1082E0000809020406080000000000000000000069
:1082F00000000000010000000103070F1F3F7FFF87
:10830000000000000000000000000101010000006A
:10831000000000000000000000000000010000005C
:040000050800066188
:00000001FF
